:020000040800F2
:1000000000180020114F00089D4C00089F4C00086C
:1000100000000000000000000000000000000000E0
:10002000000000000000000000000000A14C0008DB
:100030000000000000000000A34C0008A54C0008D0
:10004000E14A0008614F0008614F0008614F000855
:10005000614F0008614F0008614F0008614F0008C0
:10006000F94A0008614F0008614F0008614F00081D
:10007000614F0008614F0008614F0008B54C00084F
:10008000C94C0008614F0008614F0008614F00082B
:10009000614F0008614F0008614F0008614F000880
:1000A000614F0008614F0008614F0008F74A0008DF
:1000B000F54A0008614F0008614F0008614F0008D1
:0400C0005FF808F1EC
:1000C40008B59023DB05984217D0224B98421FD0E5
:1000D400214B984227D0214B98422FD0204B984255
:1000E40000D008BD80200121C00300F015FB802052
:1000F4000021C00300F010FBF3E7802001218002FF
:1001040000F00AFB80200021800200F005FBE8E7F4
:1001140080200121C00200F0FFFA80200021C002EB
:1001240000F0FAFADDE780200121000300F0F4FA80
:1001340080200021000300F0EFFAD2E780200121A3
:10014400400300F0E9FA80200021400300F0E4FAC3
:10015400C7E7C0460004004800080048000C0048F7
:1001640000140048F0B544465F4656464D46F0B488
:1001740003248C4683B00968002200230127A0468B
:1001840003E001330232102B27D03C1C0D1C9C4091
:100194002540A542F5D164462479A346013C012CAF
:1001A40022D944469440E44301940568019C0133F8
:1001B4002C4004605C46944005682C4345469540B9
:1001C4000460C468AC43C4606446E479C568944080
:1001D4002C43C4600232102BD7D103B03CBC9046F0
:1001E4009946A246AB46F0BD8468A1464446944075
:1001F4004E46E4432640866086680194B2466646CD
:1002040076799640B14656464C46264386608488A5
:10021400261CAE4386808488A1466446A5794C4654
:100224009D402543ADB28580BFE7C046044B022202
:1002340003600023427103718371C3717047C04628
:10024400FFFF0000802382B05B020193019B0B43FC
:100254000193019BC361C161019BC361C3690193A4
:10026400C369019302B07047008A0840411E884167
:10027400C0B27047008A80B27047C046808A084086
:10028400411E8841C0B27047808A80B27047C04620
:100294008161704701857047002A01D1018570474B
:1002A4008161FCE781827047072310B50F240B405E
:1002B4009B009A409C40131CC90889004018016A9D
:1002C400A1430162016A0B43036210BD0121114B7A
:1002D4001A680A431A6058680F4A02405A6018683C
:1002E4000E4A02401A6018680D4A02401A605868A3
:1002F4000C4A02400F205A60DA6A8243DA62186BB1
:10030400094A02401A635A6B8A435A6300229A606C
:100314007047C046001002400CB8FFF8FFFFF6FE1D
:10032400FFFFFBFFFFFFC0FFACFEFFFF0022024BFD
:100334001A7018707047C04602100240F821034A30
:10034400C00013688B4318431060704700100240CC
:10035400064A002804D1012113688B4313607047B7
:10036400012311680B431360F9E7C04600100240F3
:10037400F821034AC000536B8B4318435063704702
:1003840000100240064A002804D10121536B8B431C
:10039400536370470123516B0B435363F9E7C04622
:1003A40000100240064A002804D10423516B0B4379
:1003B400536370470421536B8B435363F9E7C0467F
:1003C400001002400121064B1A6A8A431A621A6A13
:1003D40003318A431A621A6A104318627047C0468E
:1003E400001002401821044B1A6A8A431A621A6ADE
:1003F400104318627047C04600100240064A0028A5
:1004040004D10121536A8B43536270470123516A1B
:100414000B435362F9E7C04600100240054B10B588
:10042400054A5C6822405A605A6811430843586080
:1004340010BDC04600100240FFFFC2FF064A00285C
:1004440004D11168054B0B40136070478021136879
:1004540049040B431360F8E700100240FFFFFFFE5E
:100464000F21034AD36A8B431843D0627047C046B6
:1004740000100240064A002804D11168054B0B40C5
:10048400136070478021136809030B431360F8E776
:1004940000100240FFFFF7FF014B18707047C04681
:1004A400071002400321034A53688B4318435060EA
:1004B4007047C046001002400C20024B5B68184095
:1004C4007047C04600100240F021034A53688B4332
:1004D400184350607047C04600100240034A044B62
:1004E40051680B40184350607047C04600100240EA
:1004F400FFF8FFFF094B0A4A59680A405A605968D5
:100504000204120C0A435A60196B064A000C0A4092
:100514001A631A6B104318637047C04600100240F8
:10052400FFBFFFFFFFFEFFFF4021044B1A6B8A430E
:100534001A631A6B104318637047C04600100240D8
:100544001021044B1A6B8A431A631A6B1043186305
:100554007047C046001002400321044B1A6B8A43C3
:100564001A631A6B104318637047C04600100240A8
:100574000C213B4A38B55368041C0B40042B01D0B2
:10058400082B51D0374820603549374D4B681B063E
:100594001B0FEA5C031CD3401A1C63604B685B05A9
:1005A4005B0FEB5CDA40A2600B6BDB0521D42F4BB5
:1005B400E3602B4B1B6B5B0624D42D4B2361284B30
:1005C4001B6BDB0625D4274B2549636103230D6B85
:1005D4002B4224D00A6B1A40012A3AD00A6B1A40E3
:1005E400022A38D00A6B1340032B01D11D4BA3619F
:1005F40038BD4B685B0414D45308E360184B1B6B81
:100604005B06DAD580231B022361154B1B6BDB06CB
:10061400D9D50323124960610D6B2B42DAD1A26153
:10062400E6E79308E360C4E7506853688002000F6C
:10063400851CDB0303D40F4868432060A4E70F2123
:10064400D36A08481940013104F0B6F968432060C0
:100654009AE7A061CCE780231B02A361C8E7C046E8
:100664000010024000127A0000000020809FD50094
:100674001280000000093D00024A136A1843106208
:100684007047C04600100240064A002804D1116A8F
:10069400054B0B40136270478021136A09020B4318
:1006A4001362F8E700100240FF7FFFFF064A0028AC
:1006B40004D1116A054B0B40136270478021136A01
:1006C40049020B431362F8E700100240FFFFFEFFEC
:1006D400044A5369002902D1834353617047184384
:1006E4005061FBE700100240044A9369002902D1DB
:1006F40083439361704718439061FBE70010024005
:10070400044AD369002902D18343D3617047184353
:10071400D061FBE700100240044A936A002902D129
:1007240083439362704718439062FBE700100240D2
:10073400044AD368002902D18343D3607047184325
:10074400D060FBE700100240044A1369002902D17B
:1007540083431361704718431061FBE700100240A4
:10076400044A1378002902D1834313707047184355
:100774001070FBE709100240430908D10A4B1B68BB
:100784001F221040C340181C012318407047012B3E
:1007940004D0022B05D0044B5B6BF1E7024B1B6AC0
:1007A400EEE7014B5B6AEBE70010024010B5002353
:1007B400A02482B00193E40001E0002808D11120B4
:1007C400FFF7DAFF019B01330193019BA342F4D1AC
:1007D4001120FFF7D1FF431E9841C0B202B010BDF3
:1007E4008021034A4904536A0B4353627047C0464D
:1007F40000100240034B9B681840431E9841C0B24E
:100804007047C04600100240014B18707047C04644
:100814000A10024008B5364B984221D08023DB05EC
:10082400984228D0334B98422ED0334B984234D040
:10083400324B98423AD0324B984242D0314B984294
:100844004AD0314B984200D008BD80200121C0021B
:10085400FFF76EFF80200021C002FFF769FFF3E776
:10086400802001210001FFF763FF802000210001A7
:10087400FFF75EFFE8E701200121FFF765FF012094
:100884000021FFF761FFDFE702200121FFF75CFF92
:1008940002200021FFF758FFD6E710200121FFF7BF
:1008A40053FF10200021FFF74FFFCDE780200121E7
:1008B4004000FFF749FF802000214000FFF744FF7C
:1008C400C2E7802001214002FFF732FF802000218F
:1008D4004002FFF72DFFB7E7802001218002FFF7D8
:1008E40027FF802000218002FFF722FFACE7C046EB
:1008F400002C014000040040001000400020004093
:1009040000400140004401400048014003881F4A60
:100914009BB290421ED08022D20590422AD01C4A1B
:10092400904227D01B4A904229D01B4A13400A897F
:10093400134303804B68C3620B880385174B9842AB
:1009440015D0174B984212D0164B98420FD0012362
:1009540083827047702293434A8813430E4A13409C
:100964000A89134303804B68C3620B8803858B7A1F
:100974000386ECE7702293434A881343D5E7038048
:100984004B68C3620B880385E1E7C046002C014035
:100994000004004000100040FFFCFFFF0040014045
:1009A400004401400048014001235B4243600023AE
:1009B40003800381438083727047C046018582822D
:1009C4007047C046702203889343194301807047DF
:1009D40041627047C1627047406A7047008D80B2BF
:1009E4007047C046002904D1022203889343038040
:1009F40070470223028813430380F9E7002904D1D6
:100A0400042203889343038070470423028813431A
:100A14000380F9E7002904D18022038893430380EB
:100A240070478023028813430380F9E70822038870
:100A34009343038003881943018070470288034B62
:100A4400134003800388194301807047FFFCFFFFB4
:100A5400002904D1012203889343038070470123B2
:100A6400028813430380F9E74A880B8813438A8872
:100A74001343CA8813430A8913434A8913438A894F
:100A840013434422835270470023038043808380AE
:100A9400C3800381438183817047C0464422002977
:100AA40004D1835A5B045B0C835270478023815AC0
:100AB4001B020B438352F8E70122038C70B5934366
:100AC4000384038C8488058B723295430A88A4B20C
:100AD4001543022293431E1C8A894B881343114AEF
:100AE400334390420ED0104A90420BD00F4A9042AA
:100AF40008D00F4A904205D08A68848005834263F7
:100B0400038470BD08229343CA894E8A1343042286
:100B140093438A881343074A14400A8A324314438E
:100B2400EAE7C046002C0140004001400044014077
:100B340000480140FFFCFFFF1022038C70B5934373
:100B44000384028C184B8588048B0E881C40202358
:100B54009A438B8936021B011A434B8892B21B01BC
:100B64001A4393B2114A3443ADB2A4B2904205D0B1
:100B74008A68858004838263038470BD80229343E2
:100B8400CA89120113430A4A13408A881201134383
:100B9400084A9BB215400A8A92001543AAB24D8AAC
:100BA400AD002A4395B2E3E7FF8CFFFF002C014020
:100BB400BFFF0000FFF3FFFF028C1A4B70B5134018
:100BC40003847323028C8588868B8C899E430B88CF
:100BD40024021E43144BADB21A404B8822431B021D
:100BE40092B21A4393B2114A904205D08A68858022
:100BF4008683C263038470BD0D4A1340CA891202FE
:100C040013430C4A13408A88120213430A4A9BB2C4
:100C140015400A8A12011543AAB24D8A2D012A43AE
:100C240095B2E3E7FFFEFFFFFFFDFFFF002C01404D
:100C3400FFF7FFFFFFFB0000FFCFFFFF028C144B09
:100C440070B513400384048C124A86880D88838B04
:100C54002D021A402A43104B8D8923402D032B4328
:100C64009CB24B88B6B21B0323430C4C92B29BB28A
:100C7400A04205D0868082838A680264038470BDA2
:100C8400074C26400C8AA4012643B6B2F2E7C046BC
:100C9400FFEFFFFFFF8CFFFFFFDFFFFF002C014092
:100CA400FFBFFFFF00230380438083808360838131
:100CB400C38103824382704730B501258D40038C84
:100CC400041CAB4303840823081C183498430DD038
:100CD4000B1F9BB25B081B191868094912020140DB
:100CE4001960196892B20A431A6030BD702049082D
:100CF40061180B6883430B600B681A430A60F4E7BE
:100D0400FF8FFFFF4163704781637047C163704782
:100D1400016470477022038B934319430183704726
:100D2400028B034B09021340194389B201837047B4
:100D3400FF8FFFFF7022838B934319438183704796
:100D4400828B034B09021340194389B28183704794
:100D5400FF8FFFFF002904D10122838893438380FE
:100D640070470123828813438380F9E70822038BA9
:100D74009343194301837047028B034B09021340C9
:100D8400194389B201837047FFF7FFFF0822838B61
:100D94009343194381837047828B034B09021340A9
:100DA400194389B281837047FFF7FFFF0422038B45
:100DB4009343194301837047028B034B0902134089
:100DC400194389B201837047FFFBFFFF0422838B21
:100DD4009343194381837047828B034B0902134069
:100DE400194389B281837047FFFBFFFF8022038B85
:100DF4009343194301837047038B09025B045B0C23
:100E0400194389B2018370478022838B934319432A
:100E140081837047838B09025B045B0C194389B29D
:100E2400818370470222038C9343194301847047E2
:100E34000822038C93431943018470472022038CB6
:100E440009019343194389B2018470478022038CBA
:100E540009019343194389B201847047028C034BFF
:100E640009021340194389B201847047FFFDFFFF53
:100E7400028C034B09021340194389B20184704761
:100E8400FFF7FFFF028C034B09031340194389B298
:100E940001847047FFDFFFFF082203899343038126
:100EA400038919430181704710B501248C408A409D
:100EB400038CA3430384038C1A4392B2028410BDAF
:100EC40010B504248C408A40038CA3430384038C10
:100ED4001A4392B2028410BD002904D104228388EB
:100EE4009343838070470423828813438380F9E704
:100EF4000B88F0B5002B2AD0042B4AD0082B00D144
:100F04006DE0048C474B0A8923404F888E88038404
:100F1400858B454C36022C403443038CA5B2140314
:100F2400424A2C43134080223D032B4352019BB27F
:100F34001343A4B284830384CB883D4A818B1B0270
:100F44000A408283828B13439BB28383F0BD0126C4
:100F5400F327028C8D88B2434B880C890284028B60
:100F64002401BA431443068CA2B22A43141C351C30
:100F74000A229543012213432B439BB20483038427
:100F8400CB880C21028B8A430283028B1343038395
:100F9400DCE71024038C8A88A3434F880E890384DA
:100FA400058B214B36032B4033439DB21302A02201
:100FB400048C2B439443221C10243D012A4392B2F7
:100FC4009BB2224303830284CB88194A018B1B0200
:100FD4000A400283028B13439BB20383B6E7F327D1
:100FE400028C144B8D8813404E880C890384828BA9
:100FF4002401BA431443A2B22A43038C141C0E4A9C
:101004003502134080222B4352009BB21343848346
:101014000384CB880C21828B8A438283828B134383
:10102400838393E7FFEFFFFFFF0C0000FF5F0000E7
:10103400FFF3FFFFFFFEFFFFFFF5FFFF0023012289
:10104400038043808280C38003817047F0B5574694
:101054004E464546E0B44D888A886E426E41531E22
:101064005F427B410F88013382B074009946002FA0
:1010740050D01023078C0E899F430784038B1202E0
:101084009846038C9A46454B9C46434667463B40EC
:101094009C4633039846634647463B436F46FB8072
:1010A400FB8857461A432B01A025AF433D1C10274C
:1010B4001D43ADB23D4392B202830584058B384A89
:1010C400C9882A400283058B0A022A4301254B461C
:1010D40092B20283028CE337AA430284028B360164
:1010E400BA43324313430A22058C9BB295432A1C0C
:1010F40001252A4314430C2203830484038B934362
:101104000383038B1943018302B01CBC90469946A8
:10111400A246F0BD0123078C0C899F430784078BEB
:10112400038C76019C46F3239F43B846434627012C
:101134001F43BFB23A4363460A27BB4301273D43DB
:101144001D43ADB2028305840C254B46CA88018B2E
:101154002403A9430183018B043511430183018CCA
:101164001B02A9430184078B0C4D018C3D402C4389
:10117400A4B21C43A02399430B1C10210B431E4310
:10118400A4B204830684018B054B12020B40038333
:10119400038B1A4392B20283B6E7C046FF0C0000E9
:1011A400FFF3FFFF406B7047806B7047C06B704765
:1011B400006C70470C22038B93430383038B194306
:1011C40001837047028B044B090213400383038B92
:1011D400194389B201837047FFF3FFFF0C22838B0D
:1011E40093438383838B194381837047828B044B9E
:1011F400090213408383838B194389B28183704727
:10120400FFF3FFFF8389002A02D18B438381704758
:1012140019438181FBE7C04681827047008A0840F8
:10122400411E8841C0B27047C94389B201827047E8
:10123400028A808983B200200A4203D01940481EE2
:101244008141C8B27047C046C94389B20182704720
:1012540048230A43C25270478389002A02D18B4330
:101264008381704719438181FBE7C046002904D17B
:10127400082283889343838070470823828813431A
:101284008380F9E707220389934303817047C046AB
:10129400702203899343194307230181028913436D
:1012A4000381704770B5048C60291DD00125AC43BF
:1012B4000484048BF235AC4301252C43A4B21B01F6
:1012C40023430A24068C9BB2A6433543ADB22A437A
:1012D4000383028470220389934319430723018102
:1012E40002891343038170BD1025AC430484068B2B
:1012F400094C1B0334408026760034432343A02446
:10130400058C1201A5432C1C10252C4322439BB2AF
:1013140092B203830284DDE7FF0C00001B021A4330
:10132400FF2310B504891C40224392B21143772253
:101334000181038993431343038110BD1B021A43A4
:10134400FF2310B504891C40224392B2114380222A
:1013540001810389D2011343038110BD70220389E3
:101364009343194301817047702283889343838098
:10137400838819438180704707220389934303813B
:1013840003891943018170478022038993430381B0
:10139400038919430181704730B5FF2504891B0275
:1013A4002C4021430A431A4392B2028130BDC04605
:1013B400F0B507240689078BA64331430226074C60
:1013C400058C3C40FF363443573EB5432A431B014A
:1013D4001A4392B2018104830284F0BDFCFCFFFF36
:1013E400002904D18022838893438380704780231B
:1013F400828813438380F9E75023C1527047C04663
:1014040001608B7C8377704738B5041C282165699B
:1014140000220023A8470023E568201C1421002291
:10142400A847201C4B21012200F04EFF2368201CFA
:101434001A79292100F048FF201C4B21002200F0DA
:1014440043FF2368201C1A79292100F03DFF201C4A
:101454004B21012200F038FF2368201C5A792921EE
:1014640000F032FF38BDC04610B582B06C4623711F
:10147400049B6171A271009384680F2101226B4661
:10148400A04702B010BDC04610B5092184680022EF
:101494000023A04710BDC04610B50A21846800226D
:1014A4000023A04710BDC04610B50A1C84680B2158
:1014B4000023A04710BDC04610B50A1C84680D2146
:1014C4000023A04710BDC04610B50A1C84680E2135
:1014D4000023A04710BDC04610B510218468002227
:1014E4000023A04710BDC04670B582B000226B46F1
:1014F400041C5A71684601230371236800915D7CC2
:10150400827100E023681A7C201C6B460F21A668B8
:10151400B0476B466A469B790133DBB293719D42B7
:10152400F0D802B070BDC04600B583B000236A464F
:101534006946137053709370D37013715371937120
:10154400D371FFF7D1FF03B000BDC04610B5041C32
:1015540082B008226846044903F026FD201C69462F
:10156400FFF7C2FF02B010BDB450000810B584B03C
:101574006B46002204681A705A709A70DA701A71F5
:101584005A719A71DA71637C8B420AD902AB5A712F
:1015940001321A716A4699710292227C0F21846881
:1015A400A04704B010BDC046F0B54F4646463823A8
:1015B400C0B4C35C83B098463923C75C0368061C77
:1015C4005A7C0025914605E001357B19DBB299452B
:1015D40014D933681B7CA9B2D8004143706BECB2B8
:1015E400844689B26144E21901340091D2B2301CBC
:1015F4000021E4B2FFF738FFA045E5D803B00CBCE6
:1016040090469946F0BDC04608B5036800211A7C8F
:101614003823C35C406B5A43D20003F003FD08BD7A
:1016240010B5041CFFF7C0FF201CFFF755FF10BDC9
:1016340008B53923C154036B1B68984708BDC046DD
:101644007C2310B5C35C041C002B01D0FFF7DCFF26
:10165400201C0021FFF7ECFF10BDC04638B5041C68
:10166400FFF7A2FF3923E55C013BE35CED18236837
:10167400EDB25B7CAB420DD97C23E35C002B05D13E
:10168400201C291CFFF7D4FF012038BD201CFFF7C4
:10169400BBFFF5E7201CFFF71FFF0020F5E7C0465E
:1016A400382370B5C55C0333E900C9B2C15404687A
:1016B400227C131C1F2A00D91F233A22DB008354E7
:1016C4003923C65CF200D3B23C228354627CAD1948
:1016D400954202DD911BC900C9B23D228354CB1847
:1016E400013283543F23B232C254A28AF02A00D872
:1016F400C2544023E28AC25470BDC04610B5041CD3
:10170400FFF7CEFF00224123E254073BE25C08339B
:10171400E254053BE25C0633E254053BE25C0633EB
:10172400E25410BD10B5041CFFF7BAFF4021226833
:10173400137D6354D18A3F22A154023AA15C04323E
:10174400A154033AA15C0432A15400210132A154F2
:101754000132A35410BDC04610B5041CFFF7A0FF0E
:1017640000234122A354023AA15C0332A154432131
:10177400043A63544033E35CA25C934201D39A1A63
:1017840062543D22A25C9B1A4422A35410BDC0465D
:1017940010B5041CFFF784FF402223684120197D03
:1017A400A1549B7D013AA354002222543E32A25CF0
:1017B400934201D39A1A22543D22A25C9B1A4222DC
:1017C400A35400224323E2540133E15410BDC04624
:1017D40010B582B004AC2478009401F001FF02B08B
:1017E40010BDC04630B583B006AC25783F24045DF7
:1017F400611AC9B2EC0706D50139C9B2009501F0E6
:10180400EFFE03B030BDC91AC9B2F7E770B582B0B4
:101814000E1C06A90D784021415C01350139891A55
:1018240003242A1C22400092C9B2321C01F0D8FEC3
:1018340002B070BD70B582B006AC26783F25402456
:10184400455D045D013D013C0236691AA21A032577
:10185400341C2C40C9B2D2B2009401F0C1FE02B0D3
:1018640070BDC046F0B583B0171C08AA16783F2295
:10187400845C0336013C641AE2B20325341C2C4018
:101884000094391C01F0ACFE03B0F0BD38B5041C63
:101894000020E3623823A0646163E2547B220133B5
:1018A400E0542233E0541F33E054793BA354049DA5
:1018B4000132A3542B682563201C9847201C02F096
:1018C40043FD38BD08B501630B68984708BDC046A1
:1018D40070B5161C041C0D1C82B000930649331C01
:1018E400064A02F0B5F80095201C05490122054B73
:1018F400FFF7CCFF02B070BD0D3A0008E1230008E9
:1019040014000020813A000870B5151C84B00093BF
:101914002B1C0F250E1C094A09496D44041C02F0B6
:1019240097F8281C01F00AF82A78011C0096201C5C
:10193400044BFFF7ABFF04B070BDC046B9240008E8
:10194400312A0008813A0008F0B54F464646C0B433
:1019540083B01F1C0AAB1C7881468846151C0026E0
:10196400002C0CD0013C2A1C0096484641463B1CE6
:101974000135E4B201F060FEEDB2002CF2D103B007
:101984000CBC90469946F0BDF0B557464E464546C8
:10199400E0B482B01F1C0AAB1C7800239846009365
:1019A4003B1C061C0D1C914601F046FE01239A4681
:1019B4000093301C291C4A46231C01F03DFE53466B
:1019C400791E69180093301C4A46231CC9B201F0E1
:1019D40033FE4346621E4A440093D2B2301C291C93
:1019E4003B1C01F029FE02B01CBC90469946A2465D
:1019F400F0BDC046F0B55F4656464D464446F0B489
:101A040087B09A4610AB151C1A7811AB1C78804627
:101A1400A346081C631904915944CFB2D9B2534662
:101A2400844605935E1E0223201C66440291361BE5
:101A34000093541E029B2C190392241A1A1C40462C
:101A4400391C99465B4600F07DFA0123F6B20093F7
:101A54004046311C4A465B4600F074FA0423E4B263
:101A640000934046391C221C5B4600F06BFA0823A5
:101A7400221C009340465B46311C00F063FA5A4630
:101A840053469B1A9B1ADBB2022B30D9023B561CDD
:101A9400DBB2F6B29946002E29D04A460137FBB292
:101AA400A246371CB1461C1C161C0023013F0093A0
:101AB4002A1C4046211C331C0135FFB201F0BCFD39
:101AC400EDB2002FF1D1221C331C54464E460025A2
:101AD4009946171C013E221C00954046391C4B4672
:101AE4000134F6B201F0A8FDE4B2002EF2D15A4658
:101AF400039B9C1AA41AE4B2022C17D9049B4746F0
:101B04009846059B00269946029D023C0135EDB29C
:101B1400E4B2013C2A1C0096381C41464B46013570
:101B2400E4B201F089FDEDB2002CF2D107B03CBC67
:101B340090469946A246AB46F0BDC046F0B55F4616
:101B440056464D4644469346F0B487B01D1C10AB30
:101B54001B788A461A1C11AB1C7803920B19DBB252
:101B640098465B46E6186B1E5344DBB204931B1B7A
:101B7400DBB29946131C013B5B44D9B20B1B0591A4
:101B8400D9B20223F6B2029100934146231C321CBF
:101B9400071C00F095F90123381C00934946231CC7
:101BA400321C00F08DF90423381C00934146231C99
:101BB400029A00F085F90823381C00934946231C37
:101BC400029A00F07DF9039B2D1B2D1B1B1B1C1B74
:101BD400EDB2E4B2022D18D8022C0FD90136023C22
:101BE400F6B2E4B2381C5146321C231C01F03AFD13
:101BF400381C0499321C231C01F034FD07B03CBC92
:101C040090469946A246AB46F0BD43460133DBB24B
:101C14009846023DEDB2381C191C5A462B1C01F0A3
:101C240017FD381C4146059A2B1C01F011FDD3E722
:101C3400F8B54F464646C0B41D1C08AB1C7809AB2A
:101C44001E78071C88469146F30741D4B3072CD469
:101C5400330717D4730711D54346E91A4B46E218E4
:101C6400C9B2D2B2381C01F007FD4B46221CE91A56
:101C74004244C9B2D2B2381C01F0FEFC0CBC9046FE
:101C84009946F8BD4346E9184B46E218381CC9B2D8
:101C9400D2B201F0F1FC4B46E91843461A19C9B215
:101CA400D2B2381C01F0E8FCD4E74346E91A4B46AB
:101CB400E21A381CC9B2D2B201F0DEFC4B46E91A72
:101CC4004346E21AC9B2D2B2381C01F0D5FCBFE7D0
:101CD4006918A21AC9B2D2B201F0CEFC4B46E91877
:101CE4004346E21AC9B2D2B2381C01F0C5FCADE7D2
:101CF400F8B54F464646C0B41E1C08AB1B78071CFB
:101D0400984609AB1C788946151CE30726D4A3071B
:101D14001AD423070ED4630708D54B462A1CF11A9C
:101D24004244C9B2D2B2381C01F0A6FC0CBC9046A5
:101D34009946F8BD4B46F11843465A19C9B2D2B276
:101D4400381C01F099FCE6E74B46F11A43465A1B4E
:101D5400C9B2D2B2381C01F08FFCDAE743467118DD
:101D64009A1AC9B2D2B201F087FCD0E7F8B54F464F
:101D74004646C0B41D1C08AB1E7809AB1B78071C73
:101D84000C1C91469846DB0746D443469B072ED449
:101D940043461B0718D443465B0711D54B46291B02
:101DA4000133C9B2DBB2381C321C01F05BFC4B4678
:101DB4000134E91AC9B2E3B2381C321C01F052FCF6
:101DC4000CBC90469946F8BD4B4629190133381C82
:101DD400321CC9B2DBB201F045FC4B46E918631C66
:101DE400C9B2DBB2381C321C01F03CFCD3E74B46D1
:101DF400291BF21A0133381CC9B2D2B2DBB201F08A
:101E040031FC4B46321BE91A631CC9B2D2B2DBB2B5
:101E1400381C01F027FCBBE7131C6918B21A013304
:101E2400C9B2D2B2DBB201F01DFC4B46321BE91839
:101E3400631CC9B2D2B2DBB2381C01F013FCA4E7B4
:101E4400F8B54F464646C0B41E1C08AB1F7809AB14
:101E54001C7880468946151CE30727D4A3071AD4A7
:101E640023070ED4630708D54B460135F11AC9B2CE
:101E7400EBB240463A1C01F0F5FB0CBC9046994687
:101E8400F8BD4B46F1186B1CC9B2DBB240463A1C94
:101E940001F0E8FBE6E74B467A1BF11A6B1CC9B26A
:101EA400D2B2DBB2404601F0DDFBD9E77118BA1AB1
:101EB4006B1CC9B2D2B2DBB201F0D4FBCEE7C04690
:101EC400F0B55F4656464D464446F0B483B01D1CFB
:101ED4000CAB1B788B46994601235B1BDFB24B4648
:101EE4006E42009201939246760000212A1C5B46C2
:101EF4008046F6B2FFF79CFE0024002D1BD07BB277
:101F0400002B06DB0236F3B2013DDEB2DB19EDB283
:101F1400DFB20134E4B263000133DB19DFB25346AC
:101F240000934B4640460193211C2A1C5B46FFF755
:101F34007FFEAC42E3D303B03CBC90469946A24634
:101F4400AB46F0BDF0B55F4656464D464446F0B448
:101F540083B01D1C0CAB1B788B46994601235B1B7D
:101F6400DFB24B466E420092019392467600002106
:101F74002A1C5B468046F6B2FFF7F8FE0024002DCB
:101F84001BD07BB2002B06DB0236F3B2013DDEB27E
:101F9400DB19EDB2DFB20134E4B263000133DB19C3
:101FA400DFB2534600934B4640460193211C2A1C42
:101FB4005B46FFF7DBFEAC42E3D303B03CBC904688
:101FC4009946A246AB46F0BDF0B556464D465F462F
:101FD40044469946F0B48FB018AB1B7804910D9326
:101FE400191C19AB1B78059206936A464B469383DA
:101FF400938B03901A1C5A43101C0A92520092B2FB
:1020040092468AB2111C012651430C924A0092B2A4
:10201400F61AF61A53434E439BB298461BB20B91E1
:102024000892B6B285B29B46002B3BDB53460A9A14
:1020340000249B1A09934B460027A1461C1C059BB0
:1020440003980093069B211C01933A1C049BFFF701
:102054004FFE099BADB2EB189BB207934B46EB18AE
:102064009BB299B2894609B2490030B2013755444E
:102074000918FFB2ADB200290FDD42460898B6B286
:102084009B19111A8AB29BB28446994613B29046A0
:102094009B46013C6644E4B2B6B26B469B8B1BB2D2
:1020A4005B45CCDD6B4601269D8D0C9B0A9AF61A86
:1020B400F61A5643524653439BB298461BB2B6B2E5
:1020C4009946002B39DB00240027089B0B9AA34672
:1020D4009B1A0D9C0793059B391C0093069B039840
:1020E4000193221C049BFFF703FE079BADB2EB1880
:1020F4009AB25B46EB189BB299B28B46089930B200
:102104008C46594609B24900013765440918FFB2A3
:10211400ADB200290EDD41465046B6B29B19091AEC
:1021240089B29BB29B460BB288469946013C564401
:10213400E4B2B6B213B29945CDDA0FB03CBC9046C6
:102144009946A246AB46F0BDF0B556464D465F46AD
:1021540044469946F0B48FB018AB1B7804910D93A4
:10216400191C19AB1B78059206936A464B46938358
:10217400938B03901A1C5A43101C0A92520092B279
:1021840092468AB2111C012651430C924A0092B223
:10219400F61AF61A53434E439BB298461BB20B9160
:1021A4000892B6B285B29B46002B3BDB53460A9A93
:1021B40000249B1A09934B460027A1461C1C059B2F
:1021C40003980093069B211C01933A1C049BFFF780
:1021D40037FE099BADB2EB189BB207934B46EB1845
:1021E4009BB299B2894609B2490030B201375544CD
:1021F4000918FFB2ADB200290FDD42460898B6B205
:102204009B19111A8AB29BB28446994613B290461E
:102214009B46013C6644E4B2B6B26B469B8B1BB250
:102224005B45CCDD6B4601269D8D0C9B0A9AF61A04
:10223400F61A5643524653439BB298461BB2B6B263
:102244009946002B39DB00240027089B0B9AA346F0
:102254009B1A0D9C0793059B391C0093069B0398BE
:102264000193221C049BFFF7EBFD079BADB2EB1817
:102274009AB25B46EB189BB299B28B46089930B27E
:102284008C46594609B24900013765440918FFB222
:10229400ADB200290EDD41465046B6B29B19091A6B
:1022A40089B29BB29B460BB288469946013C564480
:1022B400E4B2B6B213B29945CDDA0FB03CBC904645
:1022C4009946A246AB46F0BD10B500234469A04729
:1022D40010BDC04670B5041C0E1C151C00F0F6FCA5
:1022E400201C402100F0E8FC321C2B1C172125691E
:1022F400201CA847201C00F0F1FC70BD10B50A1C7E
:10230400C46815210023A04710BDC04610B50A1C9F
:10231400C46816210023A04710BDC046F8B5051CAB
:102324000C1C161C002909D0013C281C1621321C47
:102334000023EF68E4B2B847002CF5D10120F8BDC2
:1023440038B50D1C131CC4682A1C1721A04738BDBE
:1023540010B51821C46800220023A04710BDC04650
:1023640010B51921C46800220023A04710BDC0463F
:10237400F0B583B06B46051C0C1CDE1D21781729B3
:102384000FD0172916D9192920D9FE291CD1627812
:102394002921281C02343270FFF796FF217817296F
:1023A400EFD16378281C0121321C33700234FFF70B
:1023B400C7FFE3E7152907D36278281C327000238E
:1023C400EF68B8470234D9E703B0F0BD281C0022F7
:1023D4000023EF680134B847D0E7C04638B50C1C79
:1023E400143CE4B2052C0BD8064DA4002C59A74686
:1023F400111C00F061FC012038BD0469A047FBE713
:102404000020F9E7E4500008F0B50C1C4746143CE2
:10241400E4B280B4052C1CD81F1C0F4BA4001B591C
:1024240090460E1C051C9F46012100F035FC281C1B
:10243400414600F041FC012004BC9046F0BD00215F
:1024440000F02AFC2C69281C311C42463B1CA04786
:10245400F2E70020F0E7C046FC500008F0B50C1C81
:102464004746143CE4B280B4052C1ED81F1C104B04
:10247400A4001B5990460E1C051C9F46002100F029
:102484000BFC2C69281C311C42463B1CA04704BC95
:102494009046F0BD002100F0FFFB281C414600F0EF
:1024A4000BFC0120F3E70121F5E70020EFE7C0462C
:1024B40014510008F0B50C1C4746143CE4B280B437
:1024C400052C1CD81F1C0F4BA4001B5990460E1C36
:1024D400051C9F46002100F0DFFB281C414600F04C
:1024E400EBFB012004BC9046F0BD012100F0D4FBBD
:1024F4002C69281C311C42463B1CA047F2E70020F3
:10250400F0E7C0462C510008F0B50C1C4746143CBB
:10251400E4B280B4052C1ED81F1C104BA4001B5918
:1025240090460E1C051C9F46012100F0B5FB2C694A
:10253400281C311C42463B1CA04704BC9046F0BDFD
:10254400012100F0A9FB281C414600F0B5FB012045
:10255400F3E70021F5E70020EFE7C0464451000807
:10256400F0B557464E464546E0B41F1C0B1C143BC1
:10257400DBB280469146052B00D986E0444A9B0095
:10258400D3589F46F82100F097FB0F234946404655
:10259400994300F091FB4B461901C9B2404600F043
:1025A4008BFB01201CBC90469946A246F0BDF82145
:1025B40000F082FB012240462C21FFF785FE0F2309
:1025C40049464046994300F077FB40462C210122BE
:1025D400FFF77AFE4B461901C9B2404600F06CFB86
:1025E40040462C210122FFF76FFE0120DAE704693F
:1025F4004A463B1CA047D5E7FA2100F05DFB404664
:102604002C210122FFF760FE4B46072B25D9214BD5
:102614004E463C1C9A460F255246211C08340B7822
:102624000131181C1B01A8431070537002328C42F4
:10263400F5D1083EF6B240461021524600F034FB74
:10264400072EE9D84B46083BDBB2DB080133DB003D
:102654004A46FF1807231A4091464B46002BBFD029
:102664004D460F26013DEDB201357D193C784046BB
:10267400211C2401B14300F01FFB0137E1B24046A5
:1026840000F01AFBAF42F1D1AAE700208AE7C04666
:102694005C5100081C0000201439C9B2F8B5061CAE
:1026A400141C1D1C052930D8194B89005B589F4602
:1026B4002A1C1821FFF70EFE183CE4B21835301C12
:1026C400182CF5D8211C2A1CFFF704FE0120F8BDA4
:1026D40000F0FCFA0021301C00F0EEFA211C301C42
:1026E40000F0EAFA301C00F0F9FA0120EFE72023A9
:1026F400C25CFF2A06D03769301C1421221C2B1C13
:10270400B847E4E7873AC254F5E70020DFE7C0465C
:10271400745100081439C9B2F8B5061C141C1D1CE8
:10272400052934D81B4B89005B589F462A1C182165
:10273400FFF7D0FD183CE4B21835301C182CF5D83E
:10274400211C2A1CFFF7C6FD01200DE000F0BEFA93
:10275400301C002100F0B0FA301C211C00F0ACFA4F
:10276400301C00F0BBFA0120F8BD2023C25CFF2A14
:1027740001D1873AC2543769301C1421221C2B1C06
:10278400B847F1E700F0A2FA301C4021E2E700204C
:10279400EAE7C0468C5100081439C9B2F8B5041CE4
:1027A400151C1E1C052952D82A4B89005B589F46CC
:1027B4001721331C1822201C2769B847201C00F05D
:1027C4008DFA201C00F082FA183D201C0821EDB27D
:1027D400183600F071FA182DEAD82A1C2769201C33
:1027E4001721331CB8470125281CF8BD1A4B0125B5
:1027F4001B7C002BF8D000F071FAF5E72023C25CB3
:10280400FF2A01D19F3AC2542A1C2769201C142193
:10281400331CB847051CE7E70F4E337C002B01D06F
:1028240000F05CFA201C00F051FA291C201C00F076
:1028340043FA012301253374D6E7111C00F03CFA56
:102844000125D1E70022044B01251A74CCE70025A9
:10285400CAE7C046A45100081C0000201439C9B2BC
:10286400F8B5051C141C1E1C052961D8314B8900C0
:102874005B589F46002201202F4B5A74F8BD2E4FFF
:102884007B7C002B49D1002301207B74F6E72023B5
:10289400C25CFF2A01D18F3AC2542F69281C14212B
:1028A400221C331CB847E9E7234F7B7C002B37D02D
:1028B400281C211C00F000FA012301207B74DDE7B1
:1028C4001D4F7B7C002B01D000F008FA202103224D
:1028D4006B5C281C9343022213436B5400F0F6F9FB
:1028E40001237B74182C10D9331C17211822281C9F
:1028F4002F69B847183C281CE4B200F0EFF9281CF3
:10290400183600F0E3F9182CEED82F69281C17218B
:10291400221C331CB8470120B0E700F0DFF9B2E70E
:1029240020220321835C8B43835400F0CFF9BFE75B
:102934000020A3E7BC5100081C0000200123037001
:102944000048704730000020F0B54746051C80B4AD
:10295400141C0F1C1E1C0D294ED042D90E2931D037
:102964000F2947D1FFF7F4FC7179AB7FC900C9186F
:10297400CBB298464021281CFFF7C0FC43461909F6
:102984001023281C1943FFF7B9FC4146281C394081
:10299400FFF7BCFCB023B179281C1943FFF7B6FC40
:1029A4003179013CC900C9B2281C3268E4B2FFF78E
:1029B400C7FC002CF4D1281CFFF7D2FC012004BC76
:1029C4009046F0BDFFF7C4FC8121281CFFF796FC5C
:1029D400211C281CFFF79AFC281CFFF7C1FC0120CE
:1029E400EDE70B2906D11049002A18D1FFF7C0FCE6
:1029F4000120E4E70020E2E70B49002A07D1103167
:102A0400FFF7B6FC2B6801209B7CAB77D7E7183126
:102A1400FFF7AEFC2B680120DB7CAB77CFE70831F6
:102A2400FFF7A6FC0120CAE7D451000838B5051CFD
:102A34000C1CFFF789FF002814D1092C0BD00A2C99
:102A440008D1281CFEF7E0FC0749281C2031FFF7B9
:102A54008FFC012038BD0449281C5831FEF7D0FCF6
:102A64000120F7E70120F5E7D451000838B5051C2B
:102A74000C1CFFF769FF002814D1092C0BD00A2C79
:102A840008D1281CFEF7C0FC0749281C7031FFF749
:102A94006FFC012038BD0449281C5831FEF7B0FCF6
:102AA4000120F7E70120F5E7D451000838B5051CEB
:102AB4000C1CFFF749FF002814D1092C0BD00A2C59
:102AC40008D1281CFEF7A0FC0749281C2831FFF771
:102AD4004FFC012038BD0549281C5831FEF790FCF5
:102AE4000120F7E70120F5E754520008D45100080B
:102AF40038B5051C0C1CFFF727FF002814D1092C3E
:102B04000BD00A2C08D1281CFEF77EFC0749281C90
:102B14002031FFF72DFC012038BD0549281C603108
:102B2400FEF76EFC0120F7E70120F5E7D451000819
:102B34005452000838B5051C0C1CFFF705FF00288B
:102B440014D1092C0BD00A2C08D1281CFEF75CFCEC
:102B54000749281C7031FFF70BFC012038BD0549DB
:102B6400281C6031FEF74CFC0120F7E70120F5E753
:102B7400D45100085452000838B5051C0C1CFFF74A
:102B8400E3FE002814D1092C0BD00A2C08D1281CF0
:102B9400FEF73AFC0749281C7831FFF7E9FB0120CE
:102BA40038BD0449281C6031FEF72AFC0120F7E7F0
:102BB4000120F5E75452000808B503682D215A7B1B
:102BC400FFF782FB08BDC04610B5041C4C2101224E
:102BD400FFF77AFB201CFFF7EFFF10BD10B5041CB4
:102BE40000290FD14D210022FFF76EFB201CFFF7B7
:102BF400E3FF201CFFF7E8FF201C4C210022FFF715
:102C040063FB10BD4D210122FFF75EFBEEE7C046DA
:102C140038B57F230D1C9943041CFFF7DFFF4021C7
:102C2400201C2940FFF7DAFF2021201C2940FFF750
:102C3400D5FF1021201C2940FFF7D0FF0821201CBC
:102C44002940FFF7CBFF0421201C2940FFF7C6FFD2
:102C54000221201C2940FFF7C1FF0121201C29402B
:102C6400FFF7BCFF4D210122201CFFF72DFB201C88
:102C7400FFF7A2FF201CFFF7A7FF201C4D21012214
:102C8400FFF722FB201CFFF797FF201C4C2100229A
:102C9400FFF71AFB38BDC04610B50A1C0469202191
:102CA4000023A04710BDC04638B50D1C131C046991
:102CB4002A1C1721A04738BD00B583B06B46DA1D26
:102CC40011700121FFF7F0FF03B000BD10B518210A
:102CD400046900220023A04710BDC04610B5192185
:102CE400046900220023A04710BDC046012070479C
:102CF400F0B54E4657464546E0B4041C1439006806
:102D0400C9B29946037B0C2900D973E03C4D890074
:102D140069588F46201C4A21FFF7D6FA01201CBCB3
:102D240090469946A246F0BD42784921201CFFF7FF
:102D3400CBFA01222368201C1B7B40211A40FFF799
:102D4400C3FA0120EBE7002A44D001271F400123E6
:102D5400013AD2B201324A447B40924698464B46ED
:102D64001E7801239C460825E1441EE00022FFF75B
:102D7400ABFA201C40214246FFF7A6FA2368201C28
:102D84009A792C21FFF7A0FA201C40213A1CFFF766
:102D94009BFA2368013D7600DA79201C2C21EDB2E0
:102DA400F6B2FFF791FA002D26D073B2201C412110
:102DB400002BDBDA0122FFF787FADAE702784921F0
:102DC400201CFFF781FA236865699A78201C2C215E
:102DD4000023A8470120A2E7C2782C210023201C4D
:102DE4006569A8472368201C5A784921FFF76CFAC3
:102DF400012094E7002092E7D145B0D101208EE76D
:102E0400FC520008F8B546464F461439C9B2C0B45E
:102E14009846061C0C2966D8344B89005B589F469B
:102E24004A21FFF751FA01200CBC90469946F8BD9F
:102E3400036849215A78FFF747FA301C48210022D9
:102E4400FFF742FA0120EFE7002A2ED0013AD2B26E
:102E5400013242449146012743461D7801239C4692
:102E64004024E0443A1C211C01342A40301CE4B2C2
:102E7400FFF72AFA6D08482CF4D13368301C9A7B8A
:102E84002C21FFF721FA301C48210122FFF71CFAFC
:102E94003368301CDA7B2C21FFF716FA301C4821EA
:102EA4000022FFF711FAC845D6D10120BCE7036818
:102EB40049211A78FFF708FA336874699A78301C44
:102EC4002C210023A0470120AEE703682C21DA78E7
:102ED40074690023A0473368301C5A784921FFF7EE
:102EE400F3F90120A0E700209EE7C0463053000814
:102EF400F8B546464F461439C9B2C0B49846061CC4
:102F04000C2966D8344B89005B589F464A21FFF749
:102F1400DBF901200CBC90469946F8BD03684921B1
:102F24005A78FFF7D1F9301C48210122FFF7CCF978
:102F34000120EFE7002A2ED0013AD2B201324244F6
:102F44009146012743461D7801239C464024E044D2
:102F54003A1C211C01342A40301CE4B2FFF7B4F9B6
:102F64006D08482CF4D13368301C9A7B2C21FFF770
:102F7400ABF9301C48210022FFF7A6F93368301C56
:102F8400DA7B2C21FFF7A0F9301C48210122FFF73E
:102F94009BF9C845D6D10120BCE7036849211A78BA
:102FA400FFF792F9336874699A78301C2C21002356
:102FB400A0470120AEE703682C21DA787469002366
:102FC400A0473368301C5A784921FFF77DF9012066
:102FD400A0E700209EE7C04664530008F8B55646B3
:102FE40044465F464D46F0B41439041C0068C9B227
:102FF4009A46037B0C2900D97CE0414D890069582D
:103004008F4601203F4B1A703CBC90469946A2461D
:10301400AB46F8BD42784921201CFFF755F901223F
:103024002368201C1B7B40211A40FFF74DF9012027
:10303400EAE7002A4ED00121013AD2B20132194006
:103044005244934601230A1C5A40884691465346EB
:103054001D782C4B1B78002B02D080235B001D4372
:10306400012380279C460926E2447F001EE00122BA
:10307400FFF72AF9201C40214A46FFF725F9236867
:10308400201C9A792C21FFF71FF9201C402142466D
:10309400FFF71AF92368013E6D00DA79201C2C2110
:1030A400F6B2ADB2FFF710F9002E25D0201C412155
:1030B4003D42DCD10022FFF707F9DBE70278492122
:1030C400201CFFF701F9236865699A78201C2C21DC
:1030D4000023A847012097E7C2782C210023201C55
:1030E4006569A8472368201C5A784921FFF7ECF842
:1030F400012089E7002087E7DA45A8D1012083E78A
:1031040098530008B000002070B50126321C0C1C36
:103114000A404921051CFFF7D7F8321C6408281C13
:1031240022404E21FFF7D0F8A2083240281C4F213C
:10313400FFF7CAF870BDC046F8B546464F46143985
:10314400C9B2C0B4141C061C98460C2962D8324B70
:1031540089005B589F464A21FFF7B6F801200CBC52
:1031640090469946F8BD036849215A78FFF7ACF8B0
:10317400301C48210022FFF7A7F80120EFE7002ABE
:103184002ED0013CE4B201344444A1460127434615
:103194001D7801239C464024E0443A1C211C013440
:1031A4002A40301CE4B2FFF78FF86D08482CF4D1A4
:1031B4003368301C9A7B2C21FFF786F8301C482199
:1031C4000122FFF781F83368301CDA7B2C21FFF7EA
:1031D4007BF8301C48210022FFF776F8C845D6D189
:1031E4000120BCE7111CFFF78FFF336874699A78DC
:1031F400301C2C210023A0470120B0E703682C21B8
:10320400DA7875690023A847301C211CFFF77CFF7E
:103214000120A4E70020A2E7CC530008F0B54E46F5
:10322400454657461439C9B2E0B49846061C0C29E1
:1032340061D8324B89005B589F46002A1CD0492232
:103244002F4B5A7001201CBC90469946A246F0BDF3
:103254004A21FFF739F80120F5E7036849215A7834
:10326400FFF732F8301C48210022FFF72DF8301CFC
:1032740049210022FFF728F84822214B5A70E1E740
:10328400002ADFD0013AD2B201321D4B42449146AA
:103294009A46012743461D7801239C464024E04476
:1032A4003A1C211C01342A40301CE4B2FFF70CF80C
:1032B4006D08482CF4D13368301C9A7B2C21FFF71D
:1032C40003F85346301C59780122FEF7FDFF301CE9
:1032D4002C21C822FEF7F8FF3368301CDA7B2C213E
:1032E400FEF7F2FF5346301C59780022FEF7ECFF3C
:1032F400C845CFD1A6E70020A5E7C0460054000882
:10330400B00000201439C9B270B5051C1C1C0C296E
:103314005FD8314B89005B589F462123C35C002B47
:1033240009D04D210122FEF7CFFF281CFFF744FCF2
:10333400281CFFF749FC281C4D210122FEF7C4FF7D
:103344004D210022281CFEF7BFFF281CFFF734FC88
:10335400281C4C210022FEF7B7FF21230122EA5446
:10336400013BE95C281CFFF753FC012070BD4D2193
:103374000022FEF7A9FF281CFFF71EFC281CFFF7FC
:1033840023FC0122281C4D21FEF79EFF281CFFF779
:1033940013FC00222123EA54E7E74C210122FEF723
:1033A40093FF281C4D210122FEF78EFF281CFFF7F6
:1033B40003FC0120DAE7002AD7D0561EF6B2013604
:1033C400A6192178281C0134FFF722FCB442F8D155
:1033D400CBE70020CAE7C04634540008F0B52839CA
:1033E400C9B289B0141C232900D97FE0414B89005C
:1033F4005B589F4690200421C0050122FCF74CFF36
:1034040090200221C005002C65D10122FCF744FF65
:10341400012009B0F0BD802001218002FDF758F998
:10342400802001214001FDF75FF990200025E02371
:103434000326022701AC211CC00501936671277184
:10344400A571E571FCF78EFE90201E236671211C88
:10345400023EC00501932671A571E671FCF782FE58
:1034640090200521C0050022FCF71EFF90200621B4
:10347400C0050022FCF718FF90200022C005072198
:10348400FCF712FF1C4B03A90B8082235B004B80CB
:10349400E023DB008B8080239B004B81D93BFF3BE7
:1034A4001648CF800E818B81CD8100F029F9134815
:1034B400012100F0ADF9ABE790B201F041FCA7E7C0
:1034C40090001018400001F077FCA1E7902004213F
:1034D400C005002A99D00022FCF7DEFE98E7902070
:1034E4000821C005002A00D08FE7F4E70122242335
:1034F400C2548DE76854000800C0FFFF003001404B
:103504001439C9B270B5051C161C1C1C0C2957D8DB
:103514002C4B89005B589F464A21FEF7D5FE0120BB
:1035240070BD03684B211A78FEF7CEFE2B68281C69
:103534005A784921FEF7C8FE2348022100F042FAD6
:103544000028F9D0EBE7036849215A78FEF7BCFE5E
:10355400002EE4D0751EEDB2013565191A4802211A
:1035640000F030FA0028F9D021781748013400F02F
:10357400C3F9AC42F2D1D2E7036849215A78FEF785
:10358400A3FE2B68281C5A784A21FEF79DFE0E489C
:10359400022100F017FA0028F9D0C0E70368492196
:1035A4005A78FEF791FE2B68281C1A784A21FEF7F8
:1035B4008BFE0548022100F005FA0028F9D0AEE799
:1035C4000020ADE7F85400080030014030B583B066
:1035D40006AC2578046B00956468A04703B030BD41
:1035E40030B53925455D83B0ED0006AC521B247817
:1035F400D2B2012B0AD0022C15D0032C17D00125EE
:103604002C400094C46AA04703B030BD3933C35C76
:103614008B42F9D93B23C35C9342F5D9009401232F
:10362400C46AA047F0E70131C91AC9B2E7E7D21A60
:103634000132D2B2E3E7C04610B582B004AC2478BC
:10364400002B02D00094FFF7C1FF02B010BDC046AA
:1036540010B582B0002B03D000240094FFF7B6FF0E
:1036640002B010BD10B582B0002B03D00124009429
:10367400FFF7ACFF02B010BD002300B583B0009388
:103684000133FFF7A3FF03B000BDC046022903D9ED
:1036940001227B23C25470477B23C154FBE7C046FD
:1036A40008B50E4B98420ED00D4B984200D008BD81
:1036B40080200121C001FDF747F880200021C001CE
:1036C400FDF742F8F3E7802001214001FDF730F8CF
:1036D400802000214001FDF72BF8E8E7003001408D
:1036E400003800400023E02203804380D200C380DE
:1036F400038143818381C3810733828003827047BE
:10370400C12310B504889B01CA891C400B8813434C
:10371400CA8813430A8913434A8913438A89134382
:10372400234303808288094B13408A88134304226D
:1037340083800B8A0382038893434A88134303805C
:10374400828B034B1340838310BDC046FFF0FFFF01
:10375400FFF7FFFF00230222038043808380C3809E
:10376400826083817047C046F0B5474680B4274BDA
:10377400828B88B01340022283830284838B051CCE
:103784009EB28B680C1C022B37D08B8801A859423F
:103794005941531A9846FCF7EBFE8023E7880198B9
:1037A4009B009F422BD04346590101F005F9830049
:1037B4001818A168400001F0FFF805300A2180B212
:1037C40001F0FAF801230340C01A400880B2811EB8
:1037D4000222FD2915D91743802223882F843343DD
:1037E4001201134362881343A2881343A28913432B
:1037F400AB8308B004BC9046F0BDCF88EBE7000A69
:10380400D5E7021C1B021A43E5E7C04640F0FFFF60
:10381400002904D140220388934303807047402346
:10382400028813430380F9E7002904D11022838816
:103834009343838070471023828813438380F9E77E
:10384400002904D1828B054B134083837047802267
:10385400838BD20013438383F8E7C046FFFBFFFF4B
:103864008288024B1340194381807047FFF0FFFFA9
:103874008288034B13408380838819438180704777
:10388400FFEFFFFF8023DB01994204D00288044B41
:10389400134003807047038819430180FAE7C04648
:1038A400FFBFFFFF064B994205D0802203885200D8
:1038B4001343038070470288024B13400380F9E7E7
:1038C400FFFE0000FFFEFFFF002904D104228388CD
:1038D4009343838070470423828813438380F9E7EA
:1038E400002904D1082283889343838070470823E6
:1038F400828813438380F9E701737047818170479D
:10390400007BC0B27047C046808980B27047C04611
:103914000288034B134003800388194301807047D6
:10392400FFF7FFFF002904D10288054B13400380F1
:10393400704780220388920113430380F8E7C0464E
:10394400FFDFFFFF80220388520113430380704787
:10395400012902D0008B80B27047808A80B2FBE7D5
:10396400008A80B27047C0468388002A02D18B4304
:103974008380704719438180FBE7C0468288034BEC
:10398400134083808388194381807047FF9FFFFF22
:10399400012309098B4099B28388002A02D18B4301
:1039A4008380704719438180FBE7C046C0230089A8
:1039B4005B0118407047C046C0230089DB001840F3
:1039C4007047C04600890840411E8841C0B2704714
:1039D400C94389B20181704730B5012483880589C0
:1039E4009AB20F23201C0B409840031C00202B424A
:1039F40006D0231C09098B4013405A1E9341D8B2A8
:103A040030BDC0460020704708B5092905D00A29F1
:103A140001D1FDF7F9FC012008BD0249FDF7F0FCD6
:103A2400F9E7C0462C550008084A00238260C260AA
:103A34000261426122220360C377835401328354BA
:103A4400FF33033A8354053283547047093A00081C
:103A540038B5002422250460C47744550135445503
:103A6400FF34033D4455053544550361049B81608F
:103A7400C2604361FDF708FD38BDC046F0B5474656
:103A840080B406AC24780125A44607247B26144080
:103A9400A540875DEDB20026012F19D90727BA4347
:103AA40007683F7C7A435118426B90466246414412
:103AB400002A12D15A1ED2B201328A180B7833432B
:103AC4006B400B7001319142F8D104BC9046F0BDBB
:103AD4002E1C012FE2D10025E0E73A229046413224
:103AE4000727944609E04246825C89186246825C54
:103AF400012A11D90125002BE7D00A780134324379
:103B04006A40013B0A703C40DBB2002CEBD07600EB
:103B14006D00F6B2EDB2EEE7012A02D001250126CE
:103B2400E9E70126E7E7C046F0B505AC2678046866
:103B34008027257C07246A430C40C9085218416B2E
:103B440027418C4692B2FCB26244002E17D17B25E9
:103B54000AE0117861401170640801D101328034A7
:103B6400013BDBB2002B09D0415D0129F1D811786A
:103B740021431170415D0129EED0EAE7F0BD7B26B7
:103B840007E0117861401170013BDBB25219002B40
:103B9400F4D0815D0129F4D8117821431170815D3D
:103BA4000129F1D0EDE7C046411808784B780002AE
:103BB400C01880B27047C046002070477823C05CAC
:103BC4007047C0467723C05C0130C0B27047C0461E
:103BD4007823C25C013BC35C9B1A5BB2D80FC0184C
:103BE4004310D018C0B2704738B50B78041C03706A
:103BF4004B780D1C43708B788370CB78C3700B7932
:103C040003714B7943718B798371CB79C3710B7ACF
:103C140003724B7A43728B7A8372CB7AC3720B7BB7
:103C240003734B7B43738B7B8373CB7BC3730B7C9F
:103C34000374081C1121FFF7B7FF13216082281CAD
:103C4400FFF7B2FFA08238BD38B5041C237E1730BD
:103C5400002B03D0C0184378002BFBD1851C281CF3
:103C64000021FFF7A1FF281801E08378C01803782A
:103C740042781B021343F8D1001B023038BDC04602
:103C84006923C05C7047C0466A23C05C7047C04665
:103C94006B23C0567047C0466C23C0567047C0465D
:103CA4006D23C05C7047C04670B50268867A13788D
:103CB4008D19EDB23341072D11D9541C0460547889
:103CC4000822921BD2B29440083D2343DBB2EDB2EA
:103CD40001228A408572101C0138184070BDDBB285
:103CE400F6E7C04638B5041C002350340165A372BE
:103CF4006433051CC15C201CFFF7D6FF65232072CA
:103D0400E95C201CFFF7D0FF7B236072EB5C23731C
:103D14005A425341637338BD10B50C1CFFF7C4FFFE
:103D24000123013CE4B2A340C01A40B210BDC04616
:103D3400F0B55F4656464D464446F0B4061C503630
:103D4400B37985B098467B2382460F1C9146F5795A
:103D54009B460AE0F07A002832D0A74226D30023FB
:103D640098463F1B0135FFB2EDB24346347AE41A5C
:103D7400E4B2231CBC4200D93B1C4846DBB203938B
:103D840072793179AA184144D3B2C9B29C46002849
:103D9400E0D053465A46307B985400230093504653
:103DA4006246039BFFF748FCA742D8D24744B77149
:103DB400F57105B03CBC90469946A246AB46F0BDB1
:103DC40053465A46707B98544B46E7E7F0B55F4636
:103DD40056464D464446F0B483B0041C051CFFF718
:103DE40081FF5923E65C0D33E75C5035391C281CF0
:103DF400FFF75AFF0123013FFFB29946BB40DFB2F0
:103E04006723E35C83469846191C281CFFF74CFF84
:103E140043464A46013BDBB29A40D3B2019368233E
:103E2400E35C82469846191C281CFFF73DFF434675
:103E34004A46013BDBB29A40831ADBB29846082318
:103E4400EB56002B37DD019A2B7994465246DF1B43
:103E54006B795F449B1B63449B1A6B710023AB71AA
:103E6400EB7173B29B4662239A46013399462F71D4
:103E74005346281CE15CFFF717FF4B46061CE15C28
:103E8400281CFFF711FF071C201C311C0022FFF720
:103E94004FFF201C391C0122FFF74AFF281C012177
:103EA400FFF702FF0028EFD10723EB565B45DFDB6A
:103EB4007B232A7BE2546A4643460420137110563E
:103EC40003B03CBC90469946A246AB46F0BDC04602
:103ED400836C1733FF290ED860290ED8402902D9E4
:103EE4007222825A9B185A78002A04D01878884281
:103EF400F8D1981C00E0002070477422825A9B1865
:103F0400F1E7C046F0B5474680B4051C141C98463A
:103F1400FFF7DEFF011E26D0281CFFF7E3FE58231F
:103F2400EB5C2F1C237066230126EC5C5037211CAC
:103F3400381CFFF7B9FE331C013CE4B2A340C41A99
:103F440043461C706723381CE95CFFF7ADFE682309
:103F5400EC5C381C211C013CE4B2FFF7A5FEA64032
:103F6400069B841B1C7004BC9046F0BD08B5FFF78B
:103F7400AFFF431E9841C0B208BDC046F8B5051C4A
:103F8400FFF7A6FF011E24D0281CFFF7ABFE662313
:103F94002F1C0126EC5C5037211C381CFFF784FED3
:103FA400331C013CE4B2A340C41A7923EC54123B01
:103FB400E95C381CFFF778FE6823EC5C381C211C94
:103FC400013CE4B2FFF770FEA640801BC0B240B2D1
:103FD400F8BD0020FBE7C046F8B500224F46464630
:103FE4005823C0B4C254051C0C1C00F033FC164BFF
:103FF40000279846154B002699462178281C6B68A3
:104004009847011E41450FD001344845F5D0281C7E
:10401400FFF7B4FF2178C7B26B68281C9847BE1914
:10402400F6B2011E4145EFD15823EB5C301C002B46
:1040340005D07922AE5CF318C018C01BC0B20CBC0A
:1040440090469946F8BDC046FFFF0000FEFF000001
:104054005B23C1547047C046F8B5041C1E1CE36CB6
:104064000F1C151C984754234519E7540133311C80
:10407400E554201CFFF72CFF011E04D0201CFFF781
:10408400A5FEC0B2F8BD0020FCE7C046F0B5574617
:104094004E464546E0B41C1C051C0E1C924600F01E
:1040A400D9FB124B00279846114B99466B6821782F
:1040B400281C9847031E434512D001344845F5D0C7
:1040C400311C5246281CFFF7C7FF6B688619C719B5
:1040D4002178281C9847F6B2FFB2031E4345ECD161
:1040E400381C1CBC90469946A246F0BDFFFF000058
:1040F400FEFF000010B5024C4460FFF7C7FF10BD7F
:10410400B144000810B5024C4460FFF7BFFF10BD76
:1041140025450008F0B55F464D4656464446F0B482
:1041240083B001930D9B071C9A462C4B8846436031
:10413400009200F08FFB2A4B002599469B4653467C
:10414400AA461D1C0D932978381C7B689847041EC9
:104154005C4528D0234B01359842F4D0211C381CEF
:10416400FFF70CFF019BC6B20C99381C002B22D020
:10417400221C4B4600F0C8FB4346361AF6B29B1B82
:10418400DBB29846191C381C009A231CFFF764FF05
:104194005644F3B29A462978381C7B689847A1465E
:1041A400041E5C45D6D1504603B03CBC90469946AB
:1041B400A246AB46F0BD4A46231C00F0A5FB81464F
:1041C400361A4146231C381C009AFFF745FF4B461C
:1041D400F6B2F31A4344DBB29846D9E72545000802
:1041E400FFFF0000FEFF0000F0B55F464446564660
:1041F4004D46F0B483B001930D9B071C9846284BA1
:1042040089464360009200F025FB264B00249A4621
:104214009B464346A0461C1C0D932178381C7B68A2
:104224009847051E5D4528D01F4B01349842F4D0B1
:10423400291C381CFFF7A2FE019BC6B20C99381C3E
:10424400002B22D053462A1C00F096FB4B46361A0C
:10425400F6B29B1BDBB299462B1C4946009A464496
:10426400381CFFF7F9FEF3B298462178381C7B68B6
:104274009847AA46051E5D45D6D1404603B03CBCCE
:1042840090469946A246AB46F0BD2B1C524600F020
:1042940073FB4B46361AF6B2F318DBB29946DBE7EA
:1042A40025450008FFFF0000FEFF0000836CF0B509
:1042B400002B1CD06D2377247821C25C0133025576
:1042C400C35C43540239415C002910D0012912D047
:1042D4006A21455C0231465C69B277B252B2C919AF
:1042E4008A4205DB5BB2BB4201DD7823C654F0BDD4
:1042F40075190555F6E76E31415C52B24DB2AA42CA
:1043040000DA01557022825C5BB251B28B42EEDD61
:104314007823C254EBE7C04608B500227623C25482
:10432400FFF7C4FF08BDC04608B501227623C25476
:10433400FFF7BCFF08BDC04608B502227623C2546D
:10434400FFF7B4FF08BDC046014BC3647047C046C5
:10435400BD3B0008014BC3647047C046C13B000825
:10436400014BC3647047C046C93B0008014BC3649A
:104374007047C046D53B0008836C10B58B4207D00C
:10438400041C81646030FFF72FFC201CFFF78EFFB4
:1043940010BDC04610B50F230E240D2284B06C440A
:1043A4006B4409786A440093231CFFF7ABFD00209B
:1043B400205604B010BDC04608B5024B4360FFF759
:1043C4000BFE08BDB1440008F0B556464D464446C0
:1043D4005F46F0B4284B85B0051C0C1C4360274E87
:1043E40000E06B682178281C98470134011EB14213
:1043F400F7D0234B00209A46994236D00D230E273E
:104404000F266B446F446E44281C1A1C9B4600966E
:104414003B1CFFF777FD38784042C3B29846174BF0
:1044240099462178281C6B6898470134011E494538
:10443400F7D0504513D0281C5A463B1C0096FFF772
:1044440061FD307821784044C3B29846281C6B68DB
:1044540098470134011E4945E3D05045EBD15B46F2
:1044640038781B78C0184044C0B205B03CBC9046B4
:104474009946A246AB46F0BDB1440008FEFF0000D9
:10448400FFFF000008B5024B4360FFF7A5FD08BD20
:10449400254500087047C046021D03780B70037859
:1044A40001304B7002319042F7D17047002901D19D
:1044B400024870470A29FBD088B2FAE7FFFF0000E0
:1044C40070B505682C786E7894421FD896421DD337
:1044D400141BA4B2E400A4B2A21C0A3492B21E1C9F
:1044E400A4B200E00568AD5C013292B235700136C9
:1044F400A242F7D10A78002A07D0191C08311A7889
:10450400D2431A7001338B42F9D170BD1C1C1A1CA2
:104514000020083410700132A242FBD1EAE7C04601
:1045240010B5002902D11F49081C10BD0A29FAD070
:104534002324035D002B08D1FB2914D9053303552B
:10454400043B194081831849EEE7013BDAB23F236B
:1045540002551940838B9B01194389B28183002A38
:10456400E2D01149E0E7F72904D904230355013BBC
:104574001940E7E7EF2904D903230355043319400D
:10458400E0E7DF2904D9022303550D331940D9E7A5
:10459400BF2904D9012303551E331940D2E789B238
:1045A400C2E7C046FFFF0000FEFF000081617047C4
:1045B400F0B5041C0F1C211C161C85B002AD1A1C7E
:1045C40018302B1C1F31FFF77BFF0095201C391C72
:1045D400321C0123FCF748FF05B0F0BDF0B5574687
:1045E4004E46454692461C1C00222323E0B4C25486
:1045F400124B051C9846124B0E1C00279946217835
:10460400281C6B689847404512D001344845F6D0C1
:10461400C3B2311C281C5246FFF7CAFF01360137CA
:104624002178281C6B68F6B2FFB298474045ECD15C
:10463400381C1CBC90469946A246F0BDFFFF000002
:10464400FEFF000003011843064B18408300184383
:10465400054B184043001843044B184043001843CB
:104664007047C0460F0F000033330000555500005B
:10467400F0B54E468146574645468A464946E0B41B
:1046840088B002AD904618301A1C1F312B1CFFF75E
:1046940017FF002404AE06AF285DFFF7D3FF030A1B
:1046A400335538550134082CF6D1381C291CFFF732
:1046B400F3FE42465146012300954846FCF7D4FEDA
:1046C40007A8291CFFF7E8FE534644465F1CFFB2C7
:1046D4004246391C0123009548460134FCF7C4FEC8
:1046E400E4B2301C291CFFF7D7FE221C51460123DB
:1046F40000954846FCF7B8FE05A8291CFFF7CCFE38
:1047040000954846391C221C0123FCF7ADFE08B075
:104714001CBC90469946A246F0BDC046F0B557462B
:104724004E46454692461C1C00222323E0B4C25444
:10473400124B051C9846124B0E1C002799462178F3
:10474400281C6B689847404512D001344845F6D080
:10475400C3B2311C281C5246FFF78AFF02360137C8
:104764002178281C6B68F6B2FFB298474045ECD11B
:10477400381C1CBC90469946A246F0BDFFFF0000C1
:10478400FEFF0000F0B54E468146574645468A4630
:104794004946E0B488B002AF904618301A1C1F3165
:1047A4003B1CFFF78DFE002404AD06AE385DFFF719
:1047B40049FF030A2B5530550134082CF6D15146D4
:1047C4004246009648460123FCF74EFE424601321B
:1047D400D2B20095484651460123FCF745FE08B085
:1047E4001CBC90469946A246F0BDC046F0B557465B
:1047F4004E46454692461C1C00222323E0B4C25474
:10480400124B051C9846124B0E1C00279946217822
:10481400281C6B689847404512D001344845F6D0AF
:10482400C3B2311C281C5246FFF7ACFF01360137D6
:104834002178281C6B68F6B2FFB298474045ECD14A
:10484400381C1CBC90469946A246F0BDFFFF0000F0
:10485400FEFF000000222323C254704710B5024C0F
:104864004460FFF7BBFE10BDB144000810B5024C14
:104874004460FFF7B3FE10BD2545000810B5024C97
:104884004460FFF74BFF10BDB144000810B5024C63
:104894004460FFF743FF10BD2545000810B5024CE6
:1048A4004460FFF7A3FF10BDB144000810B5024CEB
:1048B4004460FFF79BFF10BD25450008F0B5232396
:1048C4004746002280B4C2540D4B061C0C1C002524
:1048D40098460C4F2178301CFFF722FEB8420AD0CC
:1048E40001344045F6D001352178301CEDB2FFF794
:1048F40017FEB842F4D1281C04BC9046F0BDC04653
:10490400FEFF0000FFFF0000F0B5002916D00F885D
:10491400013FBFB2002F11D04868844600889042FE
:1049240026D00224012006E065462D5B0130A61C3A
:10493400954205D0341C85B2BD42F5D30020F0BDAC
:1049440040008A68155A125B9542F7D9CC6850002A
:10495400005B984204D108E05000005B984204D008
:10496400013292B29542F7D8E8E70B69985CE6E722
:1049740000240220E5E7C04670B5002918D00C8851
:104984000C4EB44214D00025002006E0033080B25F
:104994004400645A051CB4420AD09442F6D16C1CFB
:1049A4006400645A9C42F1D102356D00485D00E018
:1049B400002070BDFFFF0000002243088B4274D327
:1049C40003098B425FD3030A8B4244D3030B8B420C
:1049D40028D3030C8B420DD3FF22090212BA030C15
:1049E4008B4202D31212090265D0030B8B4219D3F6
:1049F40000E0090AC30B8B4201D3CB03C01A524116
:104A0400830B8B4201D38B03C01A5241430B8B425D
:104A140001D34B03C01A5241030B8B4201D30B0346
:104A2400C01A5241C30A8B4201D3CB02C01A52416D
:104A3400830A8B4201D38B02C01A5241430A8B4230
:104A440001D34B02C01A5241030A8B4201D30B0219
:104A5400C01A5241CDD2C3098B4201D3CB01C01A33
:104A6400524183098B4201D38B01C01A524143093D
:104A74008B4201D34B01C01A524103098B4201D32B
:104A84000B01C01A5241C3088B4201D3CB00C01A98
:104A9400524183088B4201D38B00C01A5241430810
:104AA4008B4201D34B00C01A5241411A00D2014635
:104AB400524110467047FFE701B5002000F00CF8A2
:104AC40002BDC0460029F7D003B5FFF775FF0EBC41
:104AD4004243891A1847C0467047C046802108B52A
:104AE400024809010122FBF7D7FB08BD0004004876
:104AF4007047704770470000FA21F0B55F4BA5B0CE
:104B040018688900FFF758FF5D4A01385060C020DB
:104B14005C4900060B6A80271B021B0A03430B62D5
:104B24000023802093600733136080020121FBF788
:104B3400CFFD80200121C002FBF7CAFD80200121A6
:104B44000003FBF7C5FD80200125022602AC0121EC
:104B5400C003FBF7BDFD00F0ECF800F0BDF8201C2D
:104B6400FBF764FB3F014848211C029725716671DD
:104B7400FBF7F8FA802344485B01211C029325715A
:104B84006671FBF7EFFA80233F489B01211C0293D7
:104B940025716671FBF7E6FA80233B48DB01211C93
:104BA400029325716671FBF7DDFA802336481B02F8
:104BB400211C029325716671FBF7D4FA802390209F
:104BC400DB00C005211C029325716671FBF7CAFA4C
:104BD400802390209B00C005211C029325716671DF
:104BE400FBF7C0FA802390205B00C005211C0293D0
:104BF40025716671FBF7B6FA80232348DB00211C7C
:104C0400029325716671FBF7ADFA08231E48211C37
:104C1400029325716671FBF7A5FA802390201B028D
:104C2400C005211C029325716671FBF79BFA164897
:104C3400391C2A1CFBF730FB144904A8144A154BF1
:104C4400FCF762FE04A8FCF727FC04A80021FCF78B
:104C54002BFC002404A8FCF7D7FC4023211C009360
:104C640004A800222C3B0134FCF76EFEE4B204A835
:104C7400FCF7D6FC6C2CEDD1EBE7C046100000200D
:104C840010E000E000ED00E000040048DC50000803
:104C940005350008E13300087047FEE770477047A8
:104CA400024A1368013313607047C046B8000020FD
:104CB400802008B5C0050121FCF7C6FA00F0B6F85B
:104CC40008BD000008B503480121FCF7BDFA00F057
:104CD400B9F808BD000400408022024B12021A6099
:104CE4007047C04600E100E0012008B5011CFBF755
:104CF40007FD08BDFA2330B5802485B001A99B00C7
:104D040000254B603023E405201C0B800D814D8071
:104D1400FBF7FCFD201C291CFBF770FE201C012165
:104D2400FCF792FA0121201C0A1CFCF76BFA05B06F
:104D340030BD08B5FFF7D8FFFFF7DCFF08BD000062
:104D4400FA2330B51B4D85B001A928809B00802033
:104D540000244B603023C0050B800C814C80FBF792
:104D6400D5FD8020211CC005FBF748FE80200121D1
:104D7400C005FCF769FA012180200A1CC005FCF774
:104D840041FA8020211CC005FBF762FE8020211C13
:104D9400C005FBF71DFE80200121C005FBF758FE6E
:104DA400298889B20029FBD18020C005FBF750FE79
:104DB40005B030BDB20000207FB51B4E30233080DB
:104DC40080200124002501A9C0054B600C800D81C1
:104DD4004D80FBF79BFD8020291CC005FBF70EFED0
:104DE4008020211CC005FCF72FFA8020221CC0055E
:104DF400211CFCF707FA8020291CC005FBF728FEBC
:104E04008020291CC005FBF7E3FD8020211CC00580
:104E1400FBF71EFE318889B20029FBD18020C00532
:104E2400FBF716FE7FBDC046B2000020044A13887B
:104E3400002B03D01388013B9BB213807047C046FC
:104E4400B2000020034B1A68013202D01A68013202
:104E54001A607047B400002013B501200F24244BBE
:104E64001A6802431A605968224A0A405A6019684B
:104E7400214A0A401A601968204A0A401A6059688F
:104E84001F4A11405960D96AA143D9621C6B1D495C
:104E940021401963596B8143596300219960009142
:104EA400019119491030086059685960596859606E
:104EB40059680A40A0215A605A6889030A4380212C
:104EC4005A601A6849040A431A601968084A890131
:104ED400FBD5032051688143516051680138014377
:104EE40051600C2259680A40082AFAD113BDC04601
:104EF400001002400CB8FFF8FFFFF6FEFFFFFBFFB7
:104F0400FFFFC0FFACFEFFFF002002400D488546B6
:104F1400002103E00C4B5B58435004310B480C4B0D
:104F240042189A42F6D30B4A02E00023136004327B
:104F3400094B9A42F9D3FFF78FFF00F011F8FFF7FE
:104F4400DBFDFEE7001800205C550008000000208F
:104F54001400002014000020BC000020FEE7000024
:104F640070B50D4E0D4D0024AD1BAD1005D0A30042
:104F7400F35801349847A542F9D100F0E1FA084EFC
:104F8400084D0024AD1BAD1005D0A300F358013427
:104F94009847A542F9D170BD000000000000000050
:104FA400000000000000000070B50F2A32D9041C74
:104FB4000C430B1CA40731D1151C041C103D2D09F6
:104FC40001352D0149191E6826605E6866609E6879
:104FD400A660DE681033E66010349942F3D10F23E3
:104FE40045191340032B1BD91C1F0023A4080134AB
:104FF400A400CE58EE500433A342FAD1ED18C918D8
:1050040003231A4005D00023CC5CEC5401339342B3
:10501400FAD170BD051C002AF5D1FAE7051CF2E7A8
:105024001A1CF8E770B583073FD0541E002A3BD002
:10503400CEB2031C032503E0621E002C34D0141CE2
:1050440001335A1E16702B42F6D1032C24D9FF25A6
:105054000D402A0215432A0415430F2C11D9261C8E
:10506400103E3609013636011A1C9B19156055602D
:105074009560D56010329342F8D10F221440032C6E
:105084000AD9261FB6080136B6001A1C9B1920C27D
:105094009342FCD103221440002C05D0C9B21C1940
:1050A40019700133A342FBD170BD141C031CCCE75F
:1050B400FFFFFFFFFFFFFFFF01170008E9170008CC
:1050C40095170008691800085D17000839180008CA
:1050D400291700081118000801170008D51700083F
:1050E400FE230008F4230008F4230008FE2300082C
:1050F400FE230008FE230008482400082C2400088E
:105104002C240008422400084824000848240008ED
:1051140086240008AA240008982400088024000893
:105124008624000886240008F4240008D8240008F3
:10513400D8240008EE240008F4240008F42400080D
:105144003225000856250008442500082C250008AF
:105154003225000832250008F2250008B22500088F
:1051640088250008FC250008F2250008F22500081F
:10517400F2260008D4260008D4260008C226000817
:10518400D0260008D02600086E2700085027000803
:10519400882700083E2700086A2700086A270008B5
:1051A400002800081C2800083E280008DA27000808
:1051B40048280008F027000892280008AC280008B6
:1051C400AC280008C42800087828000882280008B1
:1051D4001815AF19FF0000001815AE19FF000000E4
:1051E4001815A115C819FF001815A015C019FF003E
:1051F4001815AE15D5168015A8163F15D31600152B
:1052040040158D16141520160015A115C815DA16AB
:1052140012158116CF15D916F115DB1640152E156A
:10522400A415A619FF0000000001140A64643232B8
:1052340000127A0000042896100800008000400044
:105244001815AE15D5168015A8163F15D3160015DA
:1052540040158D16141520160015A115C815DA165B
:1052640012158116EF15D916A115DB1600152E158A
:10527400A415A619FF0000001815AE15D516801543
:10528400A8163F15D316001540158D1614152016B3
:105294000015A115C815DA1602158116CF15D916F1
:1052A400F115DB1640152E15A415A619FF000000F4
:1052B4000001140A6464323200093D000304289694
:1052C40010080202800040001815AE15A415D5166A
:1052D4005015A8163F15D31600154015AD168B159D
:1052E400D9162215DB16351532158116FF15A615AC
:1052F400DA161219FF0000002C2D0008F82D000802
:10530400F82D00084A2D0008C02D0008DC2D0008E7
:10531400F82D0008F82D0008F82D0008F82D0008D5
:10532400F82D0008F82D0008182D0008342E000868
:10533400EA2E0008EA2E00084C2E0008B22E0008BF
:10534400CE2E0008EA2E0008EA2E0008EA2E0008F5
:10535400EA2E0008EA2E0008EA2E0008242E00088F
:10536400202F0008D62F0008D62F0008382F000859
:105374009E2F0008BA2F0008D62F0008D62F000849
:10538400D62F0008D62F0008D62F0008D62F0008E5
:10539400102F000818300008F8300008F830000812
:1053A40036300008C0300008DC300008F83000084F
:1053B400F8300008F8300008F8300008F830000829
:1053C400F8300008063000086A3100081832000876
:1053D4001832000882310008E83100080032000861
:1053E4001832000818320008183200081832000871
:1053F40018320008183200085A3100085E320008DA
:10540400FA320008FA320008843200083E320008FA
:1054140048320008FA320008FA320008FA3200086A
:10542400FA320008FA320008FA320008543200084E
:105434009E330008D6330008D6330008BA33000878
:105444001E33000872330008D6330008D633000830
:10545400D6330008D6330008D6330008D633000804
:105464006E3300081A340008BC340008C434000841
:105474001434000814340008F0340008F034000830
:10548400F0340008F0340008F0340008F034000868
:10549400F0340008F0340008F0340008F034000858
:1054A400F0340008F0340008F0340008F034000848
:1054B400F0340008F0340008F0340008F034000838
:1054C400F0340008F0340008F0340008F034000828
:1054D400F0340008F0340008F0340008F034000818
:1054E400F0340008F0340008E2340008F83300080F
:1054F400D034000826350008C4350008C435000837
:105504004A3500087C350008A0350008C435000879
:10551400C4350008C4350008C4350008C435000883
:10552400C43500081C35000800010000000000001C
:1055340000093D000004000001010000080008000B
:10554400F8B5C046F8BC08BC9E467047F8B5C046DE
:08555400F8BC08BC9E4670473C
:10555C00000000000102030401020304060708090D
:04556C00006CDC02F1
:0400000508004F118F
:00000001FF
