:020000040800F2
:1000000000180020255A0008295600082B56000821
:1000100000000000000000000000000000000000E0
:100020000000000000000000000000002D56000845
:1000300000000000000000002F56000831560008A4
:10004000D7520008755A0008755A0008755A0008FA
:10005000755A0008755A0008755A0008755A000844
:10006000DD520008755A0008755A0008755A0008D4
:10007000755A0008755A0008755A0008415600085C
:1000800055560008755A0008755A0008755A000838
:10009000755A0008755A0008755A0008755A000804
:1000A000755A0008755A0008755A0008DB52000896
:1000B000D9520008755A0008755A0008755A000888
:0400C0005FF808F1EC
:1000C40008B59023DB05984217D0224B98421FD0E5
:1000D400214B984227D0214B98422FD0204B984255
:1000E40000D008BD80200121C00300F015FB802052
:1000F4000021C00300F010FBF3E7802001218002FF
:1001040000F00AFB80200021800200F005FBE8E7F4
:1001140080200121C00200F0FFFA80200021C002EB
:1001240000F0FAFADDE780200121000300F0F4FA80
:1001340080200021000300F0EFFAD2E780200121A3
:10014400400300F0E9FA80200021400300F0E4FAC3
:10015400C7E7C0460004004800080048000C0048F7
:1001640000140048F0B544465F4656464D46F0B488
:1001740003248C4683B00968002200230127A0468B
:1001840003E001330232102B27D03C1C0D1C9C4091
:100194002540A542F5D164462479A346013C012CAF
:1001A40022D944469440E44301940568019C0133F8
:1001B4002C4004605C46944005682C4345469540B9
:1001C4000460C468AC43C4606446E479C568944080
:1001D4002C43C4600232102BD7D103B03CBC9046F0
:1001E4009946A246AB46F0BD8468A1464446944075
:1001F4004E46E4432640866086680194B2466646CD
:1002040076799640B14656464C46264386608488A5
:10021400261CAE4386808488A1466446A5794C4654
:100224009D402543ADB28580BFE7C046044B022202
:1002340003600023427103718371C3717047C04628
:10024400FFFF0000802382B05B020193019B0B43FC
:100254000193019BC361C161019BC361C3690193A4
:10026400C369019302B07047008A0840411E884167
:10027400C0B27047008A80B27047C046808A084086
:10028400411E8841C0B27047808A80B27047C04620
:100294008161704701857047002A01D1018570474B
:1002A4008161FCE781827047072310B50F240B405E
:1002B4009B009A409C40131CC90889004018016A9D
:1002C400A1430162016A0B43036210BD0121114B7A
:1002D4001A680A431A6058680F4A02405A6018683C
:1002E4000E4A02401A6018680D4A02401A605868A3
:1002F4000C4A02400F205A60DA6A8243DA62186BB1
:10030400094A02401A635A6B8A435A6300229A606C
:100314007047C046001002400CB8FFF8FFFFF6FE1D
:10032400FFFFFBFFFFFFC0FFACFEFFFF0022024BFD
:100334001A7018707047C04602100240F821034A30
:10034400C00013688B4318431060704700100240CC
:10035400064A002804D1012113688B4313607047B7
:10036400012311680B431360F9E7C04600100240F3
:10037400F821034AC000536B8B4318435063704702
:1003840000100240064A002804D10121536B8B431C
:10039400536370470123516B0B435363F9E7C04622
:1003A40000100240064A002804D10423516B0B4379
:1003B400536370470421536B8B435363F9E7C0467F
:1003C400001002400121064B1A6A8A431A621A6A13
:1003D40003318A431A621A6A104318627047C0468E
:1003E400001002401821044B1A6A8A431A621A6ADE
:1003F400104318627047C04600100240064A0028A5
:1004040004D10121536A8B43536270470123516A1B
:100414000B435362F9E7C04600100240054B10B588
:10042400054A5C6822405A605A6811430843586080
:1004340010BDC04600100240FFFFC2FF064A00285C
:1004440004D11168054B0B40136070478021136879
:1004540049040B431360F8E700100240FFFFFFFE5E
:100464000F21034AD36A8B431843D0627047C046B6
:1004740000100240064A002804D11168054B0B40C5
:10048400136070478021136809030B431360F8E776
:1004940000100240FFFFF7FF014B18707047C04681
:1004A400071002400321034A53688B4318435060EA
:1004B4007047C046001002400C20024B5B68184095
:1004C4007047C04600100240F021034A53688B4332
:1004D400184350607047C04600100240034A044B62
:1004E40051680B40184350607047C04600100240EA
:1004F400FFF8FFFF094B0A4A59680A405A605968D5
:100504000204120C0A435A60196B064A000C0A4092
:100514001A631A6B104318637047C04600100240F8
:10052400FFBFFFFFFFFEFFFF4021044B1A6B8A430E
:100534001A631A6B104318637047C04600100240D8
:100544001021044B1A6B8A431A631A6B1043186305
:100554007047C046001002400321044B1A6B8A43C3
:100564001A631A6B104318637047C04600100240A8
:100574000C213B4A38B55368041C0B40042B01D0B2
:10058400082B51D0374820603549374D4B681B063E
:100594001B0FEA5C031CD3401A1C63604B685B05A9
:1005A4005B0FEB5CDA40A2600B6BDB0521D42F4BB5
:1005B400E3602B4B1B6B5B0624D42D4B2361284B30
:1005C4001B6BDB0625D4274B2549636103230D6B85
:1005D4002B4224D00A6B1A40012A3AD00A6B1A40E3
:1005E400022A38D00A6B1340032B01D11D4BA3619F
:1005F40038BD4B685B0414D45308E360184B1B6B81
:100604005B06DAD580231B022361154B1B6BDB06CB
:10061400D9D50323124960610D6B2B42DAD1A26153
:10062400E6E79308E360C4E7506853688002000F6C
:10063400851CDB0303D40F4868432060A4E70F2123
:10064400D36A08481940013104F0A0FC68432060D3
:100654009AE7A061CCE780231B02A361C8E7C046E8
:100664000010024000127A0000000020809FD50094
:100674001280000000093D00024A136A1843106208
:100684007047C04600100240064A002804D1116A8F
:10069400054B0B40136270478021136A09020B4318
:1006A4001362F8E700100240FF7FFFFF064A0028AC
:1006B40004D1116A054B0B40136270478021136A01
:1006C40049020B431362F8E700100240FFFFFEFFEC
:1006D400044A5369002902D1834353617047184384
:1006E4005061FBE700100240044A9369002902D1DB
:1006F40083439361704718439061FBE70010024005
:10070400044AD369002902D18343D3617047184353
:10071400D061FBE700100240044A936A002902D129
:1007240083439362704718439062FBE700100240D2
:10073400044AD368002902D18343D3607047184325
:10074400D060FBE700100240044A1369002902D17B
:1007540083431361704718431061FBE700100240A4
:10076400044A1378002902D1834313707047184355
:100774001070FBE709100240430908D10A4B1B68BB
:100784001F221040C340181C012318407047012B3E
:1007940004D0022B05D0044B5B6BF1E7024B1B6AC0
:1007A400EEE7014B5B6AEBE70010024010B5002353
:1007B400A02482B00193E40001E0002808D11120B4
:1007C400FFF7DAFF019B01330193019BA342F4D1AC
:1007D4001120FFF7D1FF431E9841C0B202B010BDF3
:1007E4008021034A4904536A0B4353627047C0464D
:1007F40000100240034B9B681840431E9841C0B24E
:100804007047C04600100240014B18707047C04644
:100814000A10024008B5364B984221D08023DB05EC
:10082400984228D0334B98422ED0334B984234D040
:10083400324B98423AD0324B984242D0314B984294
:100844004AD0314B984200D008BD80200121C0021B
:10085400FFF76EFF80200021C002FFF769FFF3E776
:10086400802001210001FFF763FF802000210001A7
:10087400FFF75EFFE8E701200121FFF765FF012094
:100884000021FFF761FFDFE702200121FFF75CFF92
:1008940002200021FFF758FFD6E710200121FFF7BF
:1008A40053FF10200021FFF74FFFCDE780200121E7
:1008B4004000FFF749FF802000214000FFF744FF7C
:1008C400C2E7802001214002FFF732FF802000218F
:1008D4004002FFF72DFFB7E7802001218002FFF7D8
:1008E40027FF802000218002FFF722FFACE7C046EB
:1008F400002C014000040040001000400020004093
:1009040000400140004401400048014003881F4A60
:100914009BB290421ED08022D20590422AD01C4A1B
:10092400904227D01B4A904229D01B4A13400A897F
:10093400134303804B68C3620B880385174B9842AB
:1009440015D0174B984212D0164B98420FD0012362
:1009540083827047702293434A8813430E4A13409C
:100964000A89134303804B68C3620B8803858B7A1F
:100974000386ECE7702293434A881343D5E7038048
:100984004B68C3620B880385E1E7C046002C014035
:100994000004004000100040FFFCFFFF0040014045
:1009A400004401400048014001235B4243600023AE
:1009B40003800381438083727047C046018582822D
:1009C4007047C046702203889343194301807047DF
:1009D40041627047C1627047406A7047008D80B2BF
:1009E4007047C046002904D1022203889343038040
:1009F40070470223028813430380F9E7002904D1D6
:100A0400042203889343038070470423028813431A
:100A14000380F9E7002904D18022038893430380EB
:100A240070478023028813430380F9E70822038870
:100A34009343038003881943018070470288034B62
:100A4400134003800388194301807047FFFCFFFFB4
:100A5400002904D1012203889343038070470123B2
:100A6400028813430380F9E74A880B8813438A8872
:100A74001343CA8813430A8913434A8913438A894F
:100A840013434422835270470023038043808380AE
:100A9400C3800381438183817047C0464422002977
:100AA40004D1835A5B045B0C835270478023815AC0
:100AB4001B020B438352F8E70122038C70B5934366
:100AC4000384038C8488058B723295430A88A4B20C
:100AD4001543022293431E1C8A894B881343114AEF
:100AE400334390420ED0104A90420BD00F4A9042AA
:100AF40008D00F4A904205D08A68848005834263F7
:100B0400038470BD08229343CA894E8A1343042286
:100B140093438A881343074A14400A8A324314438E
:100B2400EAE7C046002C0140004001400044014077
:100B340000480140FFFCFFFF1022038C70B5934373
:100B44000384028C184B8588048B0E881C40202358
:100B54009A438B8936021B011A434B8892B21B01BC
:100B64001A4393B2114A3443ADB2A4B2904205D0B1
:100B74008A68858004838263038470BD80229343E2
:100B8400CA89120113430A4A13408A881201134383
:100B9400084A9BB215400A8A92001543AAB24D8AAC
:100BA400AD002A4395B2E3E7FF8CFFFF002C014020
:100BB400BFFF0000FFF3FFFF028C1A4B70B5134018
:100BC40003847323028C8588868B8C899E430B88CF
:100BD40024021E43144BADB21A404B8822431B021D
:100BE40092B21A4393B2114A904205D08A68858022
:100BF4008683C263038470BD0D4A1340CA891202FE
:100C040013430C4A13408A88120213430A4A9BB2C4
:100C140015400A8A12011543AAB24D8A2D012A43AE
:100C240095B2E3E7FFFEFFFFFFFDFFFF002C01404D
:100C3400FFF7FFFFFFFB0000FFCFFFFF028C144B09
:100C440070B513400384048C124A86880D88838B04
:100C54002D021A402A43104B8D8923402D032B4328
:100C64009CB24B88B6B21B0323430C4C92B29BB28A
:100C7400A04205D0868082838A680264038470BDA2
:100C8400074C26400C8AA4012643B6B2F2E7C046BC
:100C9400FFEFFFFFFF8CFFFFFFDFFFFF002C014092
:100CA400FFBFFFFF00230380438083808360838131
:100CB400C38103824382704730B501258D40038C84
:100CC400041CAB4303840823081C183498430DD038
:100CD4000B1F9BB25B081B191868094912020140DB
:100CE4001960196892B20A431A6030BD702049082D
:100CF40061180B6883430B600B681A430A60F4E7BE
:100D0400FF8FFFFF4163704781637047C163704782
:100D1400016470477022038B934319430183704726
:100D2400028B034B09021340194389B201837047B4
:100D3400FF8FFFFF7022838B934319438183704796
:100D4400828B034B09021340194389B28183704794
:100D5400FF8FFFFF002904D10122838893438380FE
:100D640070470123828813438380F9E70822038BA9
:100D74009343194301837047028B034B09021340C9
:100D8400194389B201837047FFF7FFFF0822838B61
:100D94009343194381837047828B034B09021340A9
:100DA400194389B281837047FFF7FFFF0422038B45
:100DB4009343194301837047028B034B0902134089
:100DC400194389B201837047FFFBFFFF0422838B21
:100DD4009343194381837047828B034B0902134069
:100DE400194389B281837047FFFBFFFF8022038B85
:100DF4009343194301837047038B09025B045B0C23
:100E0400194389B2018370478022838B934319432A
:100E140081837047838B09025B045B0C194389B29D
:100E2400818370470222038C9343194301847047E2
:100E34000822038C93431943018470472022038CB6
:100E440009019343194389B2018470478022038CBA
:100E540009019343194389B201847047028C034BFF
:100E640009021340194389B201847047FFFDFFFF53
:100E7400028C034B09021340194389B20184704761
:100E8400FFF7FFFF028C034B09031340194389B298
:100E940001847047FFDFFFFF082203899343038126
:100EA400038919430181704710B501248C408A409D
:100EB400038CA3430384038C1A4392B2028410BDAF
:100EC40010B504248C408A40038CA3430384038C10
:100ED4001A4392B2028410BD002904D104228388EB
:100EE4009343838070470423828813438380F9E704
:100EF4000B88F0B5002B2AD0042B4AD0082B00D144
:100F04006DE0048C474B0A8923404F888E88038404
:100F1400858B454C36022C403443038CA5B2140314
:100F2400424A2C43134080223D032B4352019BB27F
:100F34001343A4B284830384CB883D4A818B1B0270
:100F44000A408283828B13439BB28383F0BD0126C4
:100F5400F327028C8D88B2434B880C890284028B60
:100F64002401BA431443068CA2B22A43141C351C30
:100F74000A229543012213432B439BB20483038427
:100F8400CB880C21028B8A430283028B1343038395
:100F9400DCE71024038C8A88A3434F880E890384DA
:100FA400058B214B36032B4033439DB21302A02201
:100FB400048C2B439443221C10243D012A4392B2F7
:100FC4009BB2224303830284CB88194A018B1B0200
:100FD4000A400283028B13439BB20383B6E7F327D1
:100FE400028C144B8D8813404E880C890384828BA9
:100FF4002401BA431443A2B22A43038C141C0E4A9C
:101004003502134080222B4352009BB21343848346
:101014000384CB880C21828B8A438283828B134383
:10102400838393E7FFEFFFFFFF0C0000FF5F0000E7
:10103400FFF3FFFFFFFEFFFFFFF5FFFF0023012289
:10104400038043808280C38003817047F0B5574694
:101054004E464546E0B44D888A886E426E41531E22
:101064005F427B410F88013382B074009946002FA0
:1010740050D01023078C0E899F430784038B1202E0
:101084009846038C9A46454B9C46434667463B40EC
:101094009C4633039846634647463B436F46FB8072
:1010A400FB8857461A432B01A025AF433D1C10274C
:1010B4001D43ADB23D4392B202830584058B384A89
:1010C400C9882A400283058B0A022A4301254B461C
:1010D40092B20283028CE337AA430284028B360164
:1010E400BA43324313430A22058C9BB295432A1C0C
:1010F40001252A4314430C2203830484038B934362
:101104000383038B1943018302B01CBC90469946A8
:10111400A246F0BD0123078C0C899F430784078BEB
:10112400038C76019C46F3239F43B846434627012C
:101134001F43BFB23A4363460A27BB4301273D43DB
:101144001D43ADB2028305840C254B46CA88018B2E
:101154002403A9430183018B043511430183018CCA
:101164001B02A9430184078B0C4D018C3D402C4389
:10117400A4B21C43A02399430B1C10210B431E4310
:10118400A4B204830684018B054B12020B40038333
:10119400038B1A4392B20283B6E7C046FF0C0000E9
:1011A400FFF3FFFF406B7047806B7047C06B704765
:1011B400006C70470C22038B93430383038B194306
:1011C40001837047028B044B090213400383038B92
:1011D400194389B201837047FFF3FFFF0C22838B0D
:1011E40093438383838B194381837047828B044B9E
:1011F400090213408383838B194389B28183704727
:10120400FFF3FFFF8389002A02D18B438381704758
:1012140019438181FBE7C04681827047008A0840F8
:10122400411E8841C0B27047C94389B201827047E8
:10123400028A808983B200200A4203D01940481EE2
:101244008141C8B27047C046C94389B20182704720
:1012540048230A43C25270478389002A02D18B4330
:101264008381704719438181FBE7C046002904D17B
:10127400082283889343838070470823828813431A
:101284008380F9E707220389934303817047C046AB
:10129400702203899343194307230181028913436D
:1012A4000381704770B5048C60291DD00125AC43BF
:1012B4000484048BF235AC4301252C43A4B21B01F6
:1012C40023430A24068C9BB2A6433543ADB22A437A
:1012D4000383028470220389934319430723018102
:1012E40002891343038170BD1025AC430484068B2B
:1012F400094C1B0334408026760034432343A02446
:10130400058C1201A5432C1C10252C4322439BB2AF
:1013140092B203830284DDE7FF0C00001B021A4330
:10132400FF2310B504891C40224392B21143772253
:101334000181038993431343038110BD1B021A43A4
:10134400FF2310B504891C40224392B2114380222A
:1013540001810389D2011343038110BD70220389E3
:101364009343194301817047702283889343838098
:10137400838819438180704707220389934303813B
:1013840003891943018170478022038993430381B0
:10139400038919430181704730B5FF2504891B0275
:1013A4002C4021430A431A4392B2028130BDC04605
:1013B400F0B507240689078BA64331430226074C60
:1013C400058C3C40FF363443573EB5432A431B014A
:1013D4001A4392B2018104830284F0BDFCFCFFFF36
:1013E400002904D18022838893438380704780231B
:1013F400828813438380F9E75023C1527047C04663
:1014040010B5012004F09EF980212148090203F05F
:10141400D9FB0128F8D01E48102103F0D9FB1C4841
:10142400002103F011FB1A48012103F0DDFA1848EA
:10143400582103F0B7FB1648182103F0A7FB83B229
:10144400102B10D003040ED43F2411481821013C62
:1014540003F09CFB002CF8D10D48012103F0D4FAD1
:10146400152040B210BD0A48012103F0CDFA084806
:10147400002103F0DFF908240548182103F086FB56
:101484000442F9D10248012103F0D4F90020E8E72D
:1014940000540040F0B54746882080B4C0038AB0A9
:1014A4000121FFF715F9802001218003FFF728F9B6
:1014B400032301931D4B002598460227012601AC06
:1014C400181C211C67712771A671E571FEF74AFE8D
:1014D400404601210122FEF7E7FE01224046002199
:1014E400FEF7E2FE8023211C6771E6712671A57167
:1014F4000F4C9B000F480193FEF734FE201C03F0B1
:101504003FF90D4B201C03A90393069507950895F5
:1015140009950495059503F04FF9201C012103F06A
:1015240089F90AB004BC9046F0BDC04600140048D6
:10153400005400400004004850189000014B1870FB
:101544007047C0461000002008B580210D480902EC
:1015540003F038FB0128F8D00A48012103F074FA9B
:101564000848012103F040FA5821064803F01AFB09
:10157400282004F0ABF80348012103F045FA0020C9
:1015840008BDC0460054004070B5041C0D1C82B058
:1015940080212148090203F015FB0128F8D080239B
:1015A4009B01009380231C48AC21221C9B0403F064
:1015B40067FA1948022103F005FB0028F9D0002C32
:1015C40015D0661EF6B20136AE19144C02E0013C89
:1015D400002C18D01048012103F0F4FA0028F6D0AA
:1015E40029780D48013503F0DDFAB542EDD10A48FA
:1015F400202103F0E7FA0028F9D00748202103F05E
:10160400E7FA002004E00448012103F0FDF9112069
:1016140040B202B070BDC0460054004001F000006A
:1016240070B5041C0D1C82B080212848090203F007
:10163400C9FA0128F8D080239B0100932348AC21E8
:101644000122002303F01CFA2048022103F0BAFA15
:101654000028F9D090239B01009380231B48AC21E0
:10166400221C9B0403F00CFA012C1BD9A61EF6B213
:101674000136AE191548042103F0A4FA0028F9D064
:10168400124803F091FA124C287002E0013C002C3D
:1016940014D00E48042103F095FA0028F6D0013541
:1016A400B542E7D10948202103F08CFA0028F9D08B
:1016B4000648202103F08CFA002004E003480121AD
:1016C40003F0A2F9112040B202B070BD00540040F2
:1016D40001F0000070B5061C0D1C82B08021274863
:1016E400090203F06FFA0128F8D080239B010093CC
:1016F4002248AC210122002303F0C2F91F48022131
:1017040003F060FA0028F9D090239B010093802312
:101714001A48AC21321C9B0403F0B2F9174803F0B9
:1017240043FA174C02E0013C002C1FD0134804215B
:1017340003F048FA0028F6D0012E15D9023EF6B27D
:101744000136AE190D4803F02FFA0D4C287002E053
:10175400013C002C0AD00948042103F033FA002884
:10176400F6D00135B542EDD1002004E00348012153
:1017740003F04AF9112040B202B070BD0054004099
:1017840001F0000038B5154B1B78022B21D0032B38
:101794000AD0012B02D0102040B238BDFFF730FE32
:1017A4000028F8D10020F7E700250D4C01E0002CBB
:1017B400F1D080210B484900FEF756FD002801D1E5
:1017C4000135EDB2013C042DF1D9002CE3D0002009
:1017D400E2E7502003F07AFF0020DDE7100000204C
:1017E400FFFF0300000400488022044B92000028FD
:1017F40001D19A6170471A85FCE7C046000400488D
:1018040008B5084B1A78002A0BD1FF321A7002F07F
:10181400F5FB00F01BF802F065FE00F089FA02F017
:10182400F3FB08BD7408002008B5074B1A78002A9A
:1018340009D000221A7000F07FF902F0DFFE00F0F8
:101844007FF802F0E3FB08BD740800207047C0462F
:10185400F8B546464F46C0B4264E041C3368884645
:10186400002B3DD001880025002705E012888A421C
:1018740006D01B68002B07D05A68A242F6D1013764
:101884001B680135002BF7D1606802F01DFE81460C
:10189400002828D00021626804F000FC4B465C60FC
:1018A400A3689C46002B06D0484641463A1C2B1C94
:1018B400E047002819D03368002B0ED04A467368DD
:1018C4001A604B467360E3684846002B01D0984782
:1018D40048460CBC90469946F8BD4B463360F0E749
:1018E40000250027D0E70020F3E7484602F0F6FD84
:1018F4000020EEE77808002010B5002813D00F4927
:101904000A68824203D115E098420DD01A1C13686C
:10191400002BF9D14368041C1B69002B00D09847A5
:10192400201C02F0DBFD10BD03681360002BF1D115
:101934004A60EFE703680B60ECE7C04678080020D4
:1019440010B5054C2068002804D0FFF7D5FF2068A7
:101954000028FAD110BDC046780800200B4B10B502
:101964001B68002B0ED0002402E01B68002B09D05A
:101974005A6812888242F8D18C4205D01B6801341F
:10198400002BF5D1002010BD181CFCE778080020BE
:10199400084B30B51A680021002A09D05368126830
:1019A4001B881B1A5D425D41AC466144002AF5D197
:1019B400081C30BD7808002000290AD00B6804E018
:1019C4005A681288824202D01B68002BF8D1181C76
:1019D4007047014B1B68F8E7780800200E4B70B580
:1019E4001A68002A11D0824212D0436800211C8850
:1019F40001E090420DD0536812681B881B1B5E42A5
:101A04005E41B4466144002AF3D10120404270BDD6
:101A14000021081CFBE7C04678080020038D028CD7
:101A240010B511B21CB28C420CDA191C0384028565
:101A3400131C0A1C01339B1A83840123C38401F001
:101A4400E5FD10BD8C42F5D101F0D2FEF9E7C046A8
:101A5400438D428C10B511B21CB28C420CDA191CA5
:101A640043844285131C0A1C01339B1AC38401233B
:101A7400838401F0CBFD10BD8C42F5D101F0B8FE9A
:101A8400F9E7C04670B5061C0D1C141C054A82B04B
:101A9400986B311C009201932A1C231C01F0AEFAAE
:101AA40002B070BDD11A000870B5061C0D1C141CC0
:101AB400054A82B0986B311C009201932A1C231CA6
:101AC40001F09CFA02B070BDD11A0008F0B5474687
:101AD400402580B4069C655F8D4229DC4425655F02
:101AE4008D4225DD8518A8463E26A55FA8451FDD45
:101AF4004227E75B3EB2B446B04219DAA84205DA9F
:101B0400521B1018C2B2A8188046281CC44501DA1A
:101B14003A1AD2B2802B0BD93C2320840138801886
:101B240020856184E25C0C3BE254201CFFF776FFC5
:101B340004BC9046F0BDC0467047C04608B5037764
:101B440000234277C383416101F016FF08BDC046FC
:101B540010B5054C2368834200D010BD67200021D6
:101B6400FFF7FCFE2060F8E79409002008B5011C8B
:101B74006720FFF7F3FE08BD002801D0014B186071
:101B84007047C0469409002008B56720FFF700FF9E
:101B940008BDC0460823C05E7047C0460A23C05E25
:101BA4007047C046807B704780897047C07B704710
:101BB400007C704708B501F095FE08BD10B542845D
:101BC4003022041C0184835401F012FE201C01F015
:101BD40089FE10BDF8B54D46564644465F46F0B4FE
:101BE400041C0AA80025405F0BAD2E783025218403
:101BF4006284238560856655824200D17CE09942E7
:101C040000D17DE042DDC91A3F4B89B29846824239
:101C140042DC0123821A92B299460FB213B29A4659
:101C24009F4242DB5B009BB289B29A465B1A9BB22D
:101C3400591A9EB28BB29B460025002F0DDA1CE088
:101C4400238C013543442384638CADB24B445E44FE
:101C540063842BB2B6B2BB420FDC201C01F0C8FD7A
:101C640033B2002BECDA238C01354344ADB2564435
:101C740023842BB2B6B2BB42EFDD201C01F032FE4E
:101C84003CBC90469946A246AB46F8BD591A01237E
:101C940089B298468242BCDD1B4B121A92B2994615
:101CA4000FB213B29A469F42BCDA7F0092B2BFB21F
:101CB400BB1A9BB29A1A9DB293B29B465346002B11
:101CC400DBDB00260CE0238C5D4443442384638CDB
:101CD400ADB24B4463840136B6B233B29A45CCDB21
:101CE400201C01F085FD2BB2002BECDA638C7D19EE
:101CF4004B44ADB26384EEE7201CFFF78FFEBCE7D4
:101D0400201CFFF7A5FEB8E7FFFF0000002310B575
:101D1400438403840389041C83844389C384302358
:101D2400C15401F073FC201C01F0DCFD10BDC04661
:101D3400114810B54388DB071AD5FA20800002F059
:101D440035FB67200021FFF737FE041E0CD0201C52
:101D54000021FFF7DBFF201C01F0C4FD211C6720DC
:101D6400FFF72AFE041EF2D1FF22044B1A7010BDA5
:101D74000021FFF76DFDE0E7B46F00088008002044
:101D8400F8B544465F4656464D460021F0B4041C5F
:101D9400FFF7BCFF2E4B1B78002B0CD0201C01F04E
:101DA400A1FD2C4B1A68002A4AD03CBC90469946A7
:101DB400A246AB46F8BD0823E05EC617B60E361839
:101DC400B611B6B2002E3DD033B259011B014A42BE
:101DD4005B42B6B28218D10F8A18521092B2904662
:101DE4000A22A75E1C4DFB18DF0FFB185B109FB285
:101DF40030239B4601239A4680239946A9446B8845
:101E04002A8873437243FB184244A888E9882284D1
:101E1400638452465B4671437043E184A084E25478
:101E2400201C01F0F3FB0835201C01F05BFD4D453F
:101E3400E5D3201C01F056FD064B1A68002AB4D1E4
:101E44001C60B2E71023202201265B425242C1E704
:101E540080080020940900207468000838B5041C28
:101E6400A384302304A80025455F05A800782184B5
:101E74006284E584E054201C01F0C8FB201C01F0BE
:101E840031FD38BDF0B55F4656464D464446894659
:101E9400F0B483B0051C101C0CAA0024145F0DAA16
:101EA4000026965F0EAA0021525E0FA90027C95F83
:101EB4009BB24A439219109EC91AB4464E469E19C3
:101EC4000BB29B460123041924B2624436B2A246E3
:101ED400EB846884A04239DA4B461BB20193012398
:101EE40098464B462B84B14528DA01994346AB8486
:101EF40030231778541CEF544B1CB34230DA537818
:101F0400BB422DD1022204E02078013292B2B842C1
:101F140006D193B2AB841BB258180134B042F3DB40
:101F2400012B1DD0281C01F071FB221C2B8CA98CC9
:101F3400C91889B2298409B28E42D7DC6B8C5A4401
:101F440001339BB26B841BB29A45CADC281C01F096
:101F5400C9FC03B03CBC90469946A246AB46F0BDD2
:101F6400281C01F045FC221CE0E7C046F0B55746AA
:101F74004E464546E0B4161C08AA0F1C0021525ECA
:101F840009A9041C0978002B3ADD002A38DD7D1EDE
:101F9400EB181DB2B3B299464A4493B29846013B3A
:101FA4001BB29A463023C154EB1B07844684012B91
:101FB4002BDD0585FFF732FD56451ED05346278499
:101FC40063842585201CFFF729FD53469B1B012BA9
:101FD40013DD4B46464601331BB29946023E36B2E8
:101FE4006384201C27846685FFF732FD4B462584D5
:101FF40063846685201CFFF72BFD201C01F072FC16
:102004001CBC90469946A246F0BD53464385FFF753
:102014001FFDAF42F1D05346258466846385201C9E
:10202400FFF716FDE9E7C046F0B54F464646C0B493
:1020340083B0171C0AAA20CA041C12788846914649
:10204400002D21D04022DEB28563E1878752311C06
:10205400281C00F0EFFF0C23EB56442243441818CD
:102064004223E0526B7A281CFB18A3523C234A46B5
:10207400E254084B0194009341463A1C331C00F08F
:10208400BDFF201C01F02EFC03B00CBC9046994609
:10209400F0BDC046D11A0008F0B5574645464E4635
:1020A400E0B482B0171C0AAA20CA041C127888461D
:1020B40092460CAA12789146002D2FD0DEB2311C24
:1020C400281C00F0B7FF0C234246EB56181880B2C8
:1020D400A0846B7A2284E2874022E384A563678428
:1020E4004044A7520232A052DB190232A3523C23CD
:1020F4005246E2544A460C3BE2540D33E254201C4F
:1021040001F084FA084B01940093281C41463A1CC0
:10211400331C00F073FF201C01F0E4FB02B01CBC74
:1021240090469946A246F0BDD11A0008F0B585B094
:102134000AAD041C01CD2E7800281CD040250F4F79
:10214400A063E1876253023567534427457A5519E2
:10215400E5533C2566550C25455700930023019310
:10216400074B4919029309B20394002301F014F8B0
:10217400201C01F0B7FB05B0F0BDC046FF7F000096
:10218400891A0008F0B557464E464546E0B484B077
:1021940098460CAB20CB041C1B780E1C9A460EAB45
:1021A4001B78171C9946002D37D041460022002386
:1021B400281C00F0C5FF0C234022EB56181880B2EF
:1021C400A0846B7A2684E687B6B2E384A563678429
:1021D4008019A7520232A052DB190232A3523C23C7
:1021E4005246E2544A460C3BE2540D33E254201C5E
:1021F40001F00CFA43460C21695600930023019325
:10220400094B71180293281C09B203943A1C002349
:1022140000F0C2FF201C01F065FB04B01CBC90461A
:102224009946A246F0BDC046AD1A0008F0B5444632
:102234005F4656464D46F0B489B01E1C12AB041CD2
:102244000020185E15AB1B7805909B4616AB1B78D7
:1022540014989846002839D05B073ED54023E1877F
:10226400059DE2528BB29F1999464223AC463FB278
:10227400E75293B29A4663449BB21D1C07934423CE
:10228400E552437A4546069330232B40102B05D064
:10229400202B2DD1069B079AD21A12B2032345464E
:1022A4002B40012B32D0022B37D13C215D46A06359
:1022B40065541399039400910021019118490291E6
:1022C400391C00F069FF201C01F00CFB09B03CBC78
:1022D40090469946A246AB46F0BD059D0131023DAC
:1022E400023E01322BB209B236B212B20593B5E7FF
:1022F400059D069B0135ED1AEA0F52190323454645
:102304005210524412B22B40012BCCD10136F70F9C
:10231400BE1976104E4437B2C7E70F1CC5E7C04656
:10232400891A0008F0B55F4656464D464446F0B457
:1023340087B01E1C10AB00255D5F13AB1B78041C1B
:10234400984614AB1B7889469B4615AB1B78171C23
:102354009A46129B002B49D0628430235A4621842A
:102364008684C584C25401F051F953465B0744D5B1
:102374004B46E38740236A46E7524B461382422387
:10238400108A4422811909B2E152BBB29C465B19FE
:102394009BB2A352129A0593527A53460492302266
:1023A4001A40102A05D0202A34D1049B059AD31A46
:1023B4001FB2032352461340012B38D0022B27D1DE
:1023C400129A4046A2633C22A05458460132A054BB
:1023D400119A1298009200220192184A03940292D0
:1023E4003A1C00F0D9FE201C01F07CFA07B03CBC7A
:1023F40090469946A246AB46F0BD4B4601331BB20C
:102404009946023E7B1C023D36B21FB22DB2AFE7A5
:102414004946D5E7049B0135ED1AEB0F5D19524689
:1024240003236D1065442FB21340012BC6D101362E
:10243400F10F89194910411809B2C1E7AD1A000812
:10244400002805D0072903D80C4B89005B589F4608
:10245400002000B27047007B40B280B2F9E7407AB6
:10246400F7E7437A407B181A80B2F2E7807BF0E703
:10247400807AEEE7C07AECE7407BEAE7546800082C
:1024840008B5002907D00B1C011C181C00F0D2FD54
:1024940080B200B208BD0020FBE7C04608B50028A2
:1024A40009D0002907D00B1C011C181C002300F0C4
:1024B40047FE00B208BD0020FBE7C04608B500286F
:1024C4000AD0002908D00B1C0022011C181C002370
:1024D40000F036FE00B208BD0020FBE792B20028EF
:1024E40003D0531C1802C01A80B2031C002907D061
:1024F40080235B009A1A11028A1A92B2831898B246
:102504009AB21043000A80B2431E9841C0B2704789
:1025140043425841C0B2704702780B78002A0FD06A
:102524002A2A11D1002B06D042789A4213D04B7834
:102534000131002BF8D1407843425841C0B202E047
:1025440058425841C0B270479A4207D142784B78FA
:1025540001300131E2E701301A1CDFE70020F2E725
:10256400F8B5134C071C2668002E18D0341C02E062
:102574002468002C0BD06568381C2968FFF7CCFF51
:102584000028F5D0281CF8BD3668002E0CD07568DC
:10259400381C6968FFF7C0FF0028F5D0F2E700F0A7
:1025A4007FFD061E2060E1D100F07AFD4568E9E771
:1025B400840800203F2208B5C37B9343C02B00D07E
:1025C40008BD0023836101F089FFF9E7F8B5071C12
:1025D40024200E1C151C01F077FF041E09D0321CA8
:1025E4002B1C391C00F0E6FF4022E37B52421343CC
:1025F400E373201CF8BDC046406870473F2270B5A5
:10260400C37B9343C02B01D0002070BD041C082061
:1026140001F05AFF051EF7D0074E3068002808D095
:10262400402228606C60E37BFF209343E3733560B2
:10263400EBE700F035FDF3E7840800200023038076
:102644007047C046F8B5002829D0002929D00123B5
:102654000371154B041C1F1CC1600361134E20370A
:1026640008E0E068002102F019F8236920332361AF
:10267400BB4209D21B68201C9847051EB542F0D006
:10268400030403D4281CF8BD00232380E06801F070
:10269400A5FF0023E360638023616361F2E70448DC
:1026A400F1E70448EFE7C046140000200180000071
:1026B400068000000580000010B500280DD00369D5
:1026C400041C002B01D05B689847E06801F086FF8A
:1026D4000023238063802361636110BD002809D037
:1026E40002880023002A03D00369581E8341DBB209
:1026F400181C70470023FBE7002800D001717047C5
:1027040008B5002807D00369002B02D09B689847BE
:1027140008BD0248FCE70248FAE7C0460180000011
:1027240006800000F0B544465F4656464D46F0B478
:1027340087B0804610A80026865F11A80027C75FCF
:1027440012A80024045F13A80025455F00293AD08D
:102754000869844600283AD0002E36DD002F34DD87
:10276400E043C0170440C888814600B28246002076
:10277400A24521DDE843C01705400889049505906A
:1027840000B283460020AB4516DDA019504502DD9A
:102794004846061B36B20498C019584503DD05980F
:1027A400049D471B3FB20294049C00960394644624
:1027B40001974046E468A04707B03CBC9046994660
:1027C400A246AB46F0BD0348F6E70020F4E7024812
:1027D400F2E7C046068000000180000008B500282A
:1027E40007D00369002B02D01B69984708BD024833
:1027F400FCE70248FAE7C0460180000006800000BA
:1028040008B5002807D00369002B04D05B69002BAE
:1028140001D0984708BD0020FCE7C04608B5002851
:1028240007D00369002B04D09B69002B01D0984783
:1028340008BD0020FCE7C04608B5002807D003699E
:10284400002B04D0DB69002B01D0984708BD002081
:10285400FCE7C04608B5081C01F036FE08BDC046BA
:1028640008B5081C01F03AFE08BDC04670B54569BC
:1028740082B06B78012B49D12E1C0622835E103660
:102884008B4243DD01ACC068211C042201F0C8FE68
:1028940004283BD12A1C8021183223780B40581E6F
:1028A400834168684908C35C337001369642F4D1A9
:1028B400291C80202031637803405E1EB3416E687A
:1028C4004008F35C137001328A42F4D12A1C802040
:1028D4002832A37803405E1EB3416E684008F35C5F
:1028E4000B7001319142F4D1281C80213030E378FF
:1028F4000B405E1EB3416E684908F35C13700132ED
:102904008242F4D1202000B202B070BD0020FAE768
:1029140038B54569002D18D06968041C002902D017
:102924006A88FFF79DFFE968002907D00623E25E65
:102934000820235E201C5A43FFF792FF201C291C09
:102944003022FFF78DFF0023636138BDF0B583B0FB
:10295400041C6946C068022201F062FE022802D00B
:10296400724803B0F0BD6B461B78422BF8D16B461E
:102974005B784D2BF4D10026201C66803021FFF7B4
:1029840069FF051E606111D0071C00231037037016
:10299400C6604660391CE068082201F041FE082840
:1029A40006D0201CFFF7B4FF6148DAE76148D8E796
:1029B400291C0422E068083101F032FE021E042AB8
:1029C400EFD1E06801A901F02BFE0428E9D1019BB5
:1029D4000E3301931A2B18D0352BE2D9362B03D0A2
:1029E40002222B7813432B70E068391C242201F057
:1029F40017FE2428D5D180222B691202934232D9A2
:102A0400201CFFF785FF4C48ABE701222B78391CCB
:102A140013432B70E068073201F002FE0828C0D18E
:102A24002B8AE3806B8A23811BB2002B07DA802276
:102A34002B78524213432B7023895B422381AB8A48
:102A4400012BDDD1EA8A012ADAD104212B786A70BC
:102A54000B432B7002236B802B785B0727D4032353
:102A6400002023807DE7E3806B69002B05DA802159
:102A74002A7849420A432A705B4280221202934216
:102A8400BED823812B8B012BBAD16A8B012AB7D1F3
:102A940004212B786A700B432B7002236B80EB6943
:102AA400002BADD1EB6A012BD6D16B80D4E7019911
:102AB400E06801F0F3FD6988201CFFF7CBFE686035
:102AC400002800D172E701232E781E4017D000267B
:102AD4006B88B342C3D9E068391C032201F0A0FD1E
:102AE400032800D05DE7AB7C6A7C1A432B7C13433C
:102AF4005A1E93416A6893550136B6B2E8E76B886B
:102B0400B342ACD9E068391C042201F089FD0428E1
:102B140000D046E7AB7C6A7C1A432B7C13435A1ED5
:102B240093416A6893550136B6B2E8E70180000024
:102B3400028000000480000003800000F8B54F46C6
:102B440046464469C0B4E368002B04D000200CBCA2
:102B540090469946F8BD0623C15E0822835E051C93
:102B64005943FFF777FEE06000286BD0E868A1685E
:102B740001F094FD102399462378A1447F2B2CD88F
:102B84002B89E988581E1BB20AB2013B5343E468FF
:102B9400E41883B298460304D8D44F46002A45DD8E
:102BA4000020A6B20CE01A7801345F1C631E1A7070
:102BB400E988A31B01380AB21BB280B29A4235DD00
:102BC400A11B89B23B1C0028EDD109B2281CFFF7D8
:102BD4004DFE002838D04B46E5E70822AB5EE4689A
:102BE400002BB3DD00214A4688460620295E0029D1
:102BF4002EDD0020A6B20CE0197801345A1C631EA5
:102C040019700627E95FA31B01381BB280B29942F1
:102C14001CDDA11B89B2131C0028EDD109B2281CAC
:102C2400FFF724FE00280FD04B46E5E74346013B5F
:102C34009BB2984652001BB2A41A013300D185E717
:102C44000AB2ABE7064882E7064880E708202B5E15
:102C540047460137B8B2804600B28342C7DC75E705
:102C64000480000002800000F0B556464D464446FC
:102C74005F46F0B491B01AAC08930023E45E079267
:102C84000694231C1BAC0022A55E1CAC0022A45E8F
:102C9400CE88A1461DAC0022A45E37B2A0464C6982
:102CA400A2464F4535DD0C8922B29446424530DDBB
:102CB4004B44BB4203DD4B46F61A33B206934346FC
:102CC4005E1966452DDC5346079ADB68089C0E1C8A
:102CD40008920790002B27D000954D460195454654
:102CE4000493111C02950397221C069BFFF7CAF854
:102CF40000200FE00821725E0A99013189B2081C94
:102D04000A910B99013189B20B9101B28A4200DD1B
:102D1400B4E0002011B03CBC90469946A246AB46B4
:102D2400F0BDE51A2DB2CEE75346C868996801F0A4
:102D3400B5FC53461B787F2B00D989E03389013BCE
:102D44009BB29AB20D9212B29346002AE1DB1C198F
:102D54004346E41AA3B20A930622B35E2A1C0699D8
:102D64004244494409915146CA4691460E91002471
:102D74000027002B56DD6B465D4628229B5E0C9394
:102D8400301C391CFFF772FD002859D0A8453FDCE0
:102D94004D453DDA099B9F423ADA3B189A4537DCA8
:102DA40053466A469385938DA4B20B93BA4549DC86
:102DB4000023002100220F937F18BC4683B29B4658
:102DC4009B1A1BB2099F9C44674506DA0B9F069B1E
:102DD400BC4663441B1B9B1A1BB2012B00D1AEE003
:102DE400A118089A94460B9A6144891A0122009208
:102DF4006A463C27D25F09B20192002202920E9ADF
:102E040003901032049207980C9AFFF73BF802E003
:102E140083B29B46A4B25C44A4B20622B35E27B23A
:102E2400BB42ADDC0D9A013A92B2111C0D920A9A82
:102E3400013A92B20A920AB29346013297D168E7F4
:102E4400534867E71A1B92B293B20F9319B2B3E7D0
:102E54000823F25E002A00DC5BE74346E41AA3B2CF
:102E64000B9300230A930621735E291C06984144A0
:102E7400484409905046CB468A460E9000240027C9
:102E8400002B00DC38E76B4628229B5E1D1C4AE0C1
:102E9400554550DA099B9F424DDA3B189B454ADC65
:102EA4005B466A461386138EA4B20C93BB4556DC6C
:102EB400002300220D930F930D9983B28C469946FB
:102EC4009B1A67441BB2F918099F8F4206DA0C99C2
:102ED400069B8C4663441B1B9B1A1BB2A218012B36
:102EE40044D0089F0C99BC466244511A6A462C2768
:102EF400D25F01270C926A4600973C27D75F039064
:102F0400019700270E9809B2103004900297079891
:102F14000C9AFEF7B7FF4C44A4B20622B35E27B264
:102F2400BB4200DCE6E6301C391CFFF79FFC00289E
:102F340086D0A845ACDD83B2A4B29946EBE7089BE2
:102F4400A2189C460B9B6244D21A0E9B12B25B18C9
:102F54001B7C111C07980C9AFEF730FE5BE71A1BCA
:102F640092B293B20F931BB20D93A5E7089B0D98F1
:102F74009C460C9B6244D11A6B4684462C229A5E72
:102F84000E9B09B263441B7C0798FEF717FEC2E749
:102F940002800000012040427047C0464369002B74
:102FA40005D01A780020520700D5588870470020B1
:102FB400FCE7C0464269002A0BD00420137818406D
:102FC40006D0538800208B4202D95368C9B2585C9A
:102FD40070470020FCE7C04610B54469002C0BD0B4
:102FE40004202378184006D063888B4204D9FF203C
:102FF4006368C9B25A5410BD0020FCE7F0B5151C33
:10300400041C83B0089A9BB20092099AA7690192A2
:103014002A1C0E1CB847002809D1089A238A00925A
:10302400099AA7690192201C311C2A1CB84703B0D5
:10303400F0BDC04610B5041C89B2636998470028E6
:1030440003D1218A6369201C984710BD10B5021C66
:10305400104905E00132541E247801319C4205D107
:103064000B78002BF6D11378002B0FD00A4B05E018
:103074000130411E09780133914209D11A78002A9E
:10308400F6D103780020002B00D010BD0348FCE7E4
:103094000020FAE7E4740008F8740008F4680008F3
:1030A400014824307047C046F4680008F8B50F1C86
:1030B4006D21151C061CFFF7BDFFC00084B2202142
:1030C400301CFFF7B7FF0C2171564019C91B80B2A1
:1030D4000519401800B2211C02F0CEF8681A00B29B
:1030E400F8BDC046F0B54F4646460C25C0B483B083
:1030F400019345570AAB4D1B81468846171C0B9E0E
:10310400ADB21C8807E028B2391C0C9BB0474519A6
:10311400ADB2013CA4B2002C0CD001A801F028FFF0
:10312400021E092AEFD12AB248464146FFF7BEFFE4
:10313400051CEEE703B00CBC90469946F0BDC046B2
:1031440070B582B0061C0191002A00D1114A141CEA
:10315400002508E0301CFFF76DFF013C4519A4B2BF
:10316400ADB2002C13D0019B1B78002B0FD001A80B
:1031740001F0FEFE011E0929ECD12AB2301C002107
:10318400FFF794FF013CA4B2051C002CEBD128B23C
:1031940002B070BDFFFF0000F0B54D465F465646D5
:1031A4004446F0B48BB0994614AB924604CB8046A7
:1031B4001D88059193460792002D00D14B4D0027A1
:1031C40000247F26079B1B78002B11D007A801F051
:1031D400CFFE331C0134A4B20340202B06D00D28AB
:1031E40004D00938C0B2012800D9271CAC42E9D167
:1031F4004B46002B0CD04B46012B5FD04B46022B89
:1032040012D00BB03CBC90469946A246AB46F0BDEA
:10321400169B00970193179B4046029305995246CB
:103224005B46FFF75FFFECE75B4600240893002F43
:10323400E7D0013408A8A4B201F09AFEBC42F8D148
:103244006B469B8A0C25994643465D574B465D1B4E
:10325400ADB200240EE0311CFFF7ECFE2D1AADB226
:10326400321C28B25146179B169EB0470134A4B2B3
:10327400BC42C6D008A801F085FE089B09A80993A2
:1032840001F076FE061E4046092EE4D16D21FFF7BB
:10329400D1FEC00086B220214046FFF7CBFE434654
:1032A4001B7B281A5BB280B24B44851B181A00B2F0
:1032B400311C01F0E1FF6D18ADB2D7E759463A1C55
:1032C40040460023FFF73CFFC10F059B0918491036
:1032D400591A169B09B20193179B00970293404613
:1032E40052465B46FFF7FEFE8BE7C046FFFF000039
:1032F40010B584B006AB10CB1B8800940193089BD7
:103304000293099B03930023FFF746FF04B010BD0B
:10331400F0B54D465F4656464446F0B4C58B8DB075
:10332400002D0DD0006A0024061C3088834203D38C
:103334007788181AB8420BD301341836AC42F4D348
:1033440000200DB03CBC90469946A246AB46F0BD69
:10335400347AB246002C00D091E05546336900041B
:103364000B90C00B03931E5A5346AD795B692F1C17
:103374009C46A946039B77431B185B8867449B1BA9
:10338400DBB208970693504640795346821892B2AE
:10339400101C52461279DB79891889B20D1C0791E9
:1033A400002B00D18CE08446013BDBB20133634443
:1033B4009BB209930023069A0493013A9B46D2B226
:1033C4006B1CD3189BB29846534682460A935B46BD
:1033D4000127049A9F409446089BFFB263441E1C35
:1033E400069B002B22D05146484600220023B946B2
:1033F40009B2079D05910390494634780C40611E3B
:103404008C41E4B29C4247D0002B01D0002A2CD13D
:103414000122039B01359C46ADB26644231C4545FD
:10342400EAD1E146002C01D0002A38D15B460133B1
:10343400DBB29B46072B05D9049B0133DBB2049313
:1034440000239B46534601339BB29A46099B9A45F7
:10345400BDD10A9B9A4618791C7A002C2DD152466C
:103464000B9BD2681B0CD05C6BE7179BA81A0093CC
:1034740000B20599FF23169FB8470122C9E7030448
:103484007069B57984460B931B0C63436B436344A7
:103494000893A946069476E70132D2B2B9E70699B1
:1034A400079B8C466344981A534619B2179B00B283
:1034B4000093169CFF23A047B8E70419E0B240E745
:1034C400101CCAE730B5C48B002C0CD0026A002053
:1034D4001388994203D35588CB1AAB4205D30130E4
:1034E4001832A042F4D3002030BD107A117900289C
:1034F40002D04018C0B2F7E71B04D2681B0CD05CA2
:10350400F2E7C046F0B557464E464546E0B482B0B1
:103514000A9D99462F7A00247A437843D3B26A7A73
:10352400984651436B89C718AB893FB2CE18B3B2E2
:103534009A46002A0ED0534619196B6809B20093B3
:10354400381C4B4642462E68B04701346B7AE4B2CD
:10355400A342F0D802B01CBC90469946A246F0BDE6
:1035640010B5041CC069436998472023E35C5843A1
:10357400C0B210BD70B5051C202686B00A9802ACF6
:1035840002900B980390A85D20722120285CA281F0
:10359400074A6072E869618100920194846900219C
:1035A4000022A047AB5D5843C0B206B070BDC04610
:1035B40009350008F0B50D1C041C8C46C2CDC2C4EC
:1035C400C2CDC2C46146C161017A51430172417ADC
:1035D40059434172017B51430173417B5943417308
:1035E400817A51438172C17A5143C172817B5943BB
:1035F400817304494161044981612021425421229B
:103604008354F0BD6535000879350008F0B54D46A2
:103614005F4656464446F0B4838983B08146B42B52
:1036240000D1D2E087225200934200D1BCE05A2B51
:1036340000D16BE0428CC38C078C858C91B2CB1883
:103644007D19013B013D9BB2ADB2019348464069EF
:1036540012B28446D3175B0F9B18DB10DA010724E0
:1036640094446A462140F8348C400421525EE4B20A
:10367400D117490F8A18D210D31A98464A463023D4
:10368400D35C002B54D001235B4243449A46434607
:10369400002B00D1A6E03EB251466046B346B24686
:1036A4002DB23A1C5B46AA4508DCC3181E780132C9
:1036B400264392B21E7013B29D42F6DA8030FF2484
:1036C4000139EED243465646DB019C440723019A56
:1036D4009343FF221A411440E3B2AE4209DC61462F
:1036E4008E19327801371A43BFB232703EB2B542F6
:1036F400F6DA4B46DA8B042313434A46D38303B0EA
:103704003CBC90469946A246AB46F0BD031C478C90
:10371400C58C998C7D19013D008CADB240223F23AC
:103724004118511A1B1A89B29BB28AB201938DE7D0
:1037340001235B4243449A464346002B55D03EB294
:10374400211C60465446B346BA462DB2AE420CDC48
:10375400C94352465B46C9B2C3181F7801320F40B1
:1037640092B21F7013B29D42F6DA8030FF21013C01
:10377400ECD243465746FF24DB019C440722019BBD
:103784009A43FF2313411C40E2B2AE42B1DCD24360
:103794006146D2B28E19337801371340BFB2337009
:1037A4003EB2B542F6DAA4E78023458CC78C028C7E
:1037B400EF19DF1B7F235D1B838C91B2CB18013B78
:1037C4009BB2BFB2ADB2019340E78023058C878CD6
:1037D400EF19DF1B7F235D1B031CBFB2ADB2408C0E
:1037E400D98C9BE72DB23EB270E72DB23EB2C5E74D
:1037F4008389B42B3FD087225200934235D05A2B71
:1038040019D0038C428C3021415C00291CD119B29F
:1038140013B2DB10DB01CB1841698C4607210A4047
:103824000639914063441A788A431A700423C28B80
:103834001343C38370473F22018C438C521A3021B7
:10384400415C92B20029E2D011B2C910C9011BB285
:103854005B1841698C4607210A40063991400A1CCD
:10386400634419780A431A70E0E77F23428C9B1A59
:103874009BB2028CC7E77F23028C418C9B1A3F22A8
:10388400521A9BB292B2BEE78389B42B21D087220D
:103894005200934217D05A2B0FD0038C418C1AB28A
:1038A4000BB2DB104069DB019B18185C072319403D
:1038B4000841011C0120084070473F22018C438CC1
:1038C400511A89B2EBE77F23428C018C9B1A9BB27D
:1038D400E5E77F23028C418C9B1A3F22511A9BB24D
:1038E40089B2DCE7F8B5C38B5B0700D4F8BD456942
:1038F400071C90200821C0050022FCF7CDFC902075
:103904000221C0050022FCF7C7FC1A48022101F07D
:103914000FFB0028F9D01748402101F0A3FA9020AA
:103924000221C0050122FCF7B7FC8023DB00EE185E
:1039340090200221C0050122FCF7AEFC2C1C80352E
:103944000C48022101F0F4FA0028F9D02178094842
:10395400013401F087FAA542F2D1B542E8D19020B2
:103964000122C0050821FCF797FC0422FB8B93433A
:10397400FB83BBE700300140F0B54746041C8020C0
:1039840080B4C00088B000F09FFD0023667F6061B2
:10399400A361002E68D1802001218002FCF798FEEB
:1039A400802001214001FCF79FFEE02390200327A3
:1039B40001AD0193C005DE3B291C98466F712B7144
:1039C400AE71EE71FCF7CEFB90201E236F71C00523
:1039D400023F291C01932F71AE71EF71FCF7C2FBFA
:1039E40090200521C0050022FCF75EFC90200621F2
:1039F400C0050022FCF758FC90200022C0050721D6
:103A0400FCF752FCEC4B03A90B8082235B004B8038
:103A1400E023DB008B804346CB8080239B004B81DB
:103A2400D93BFF3BE5488B810F81CE8101F01EF924
:103A3400E248012101F0A2F990200421C0050022EE
:103A4400FCF72AFC90201021C0050022FCF724FC7E
:103A540090200821C0050022FCF71EFC90200421C0
:103A6400C0050122FCF718FC902004210022C005A7
:103A7400FCF712FC142000F099FC90200421012290
:103A8400C005FCF709FC142000F090FC90200821EC
:103A9400C0050022FCF700FC90200221C005002292
:103AA400FCF7FAFBC548022101F042FA0028F9D0DC
:103AB400C248AE2101F0D6F990200221C0050122AE
:103AC400FCF7EAFB90200221C0050022FCF7E4FB8E
:103AD400BA48022101F02CFA0028F9D0B748D521C0
:103AE40001F0C0F990200221C0050122FCF7D4FBAB
:103AF40090200221C0050022FCF7CEFBAF48022132
:103B040001F016FA0028F9D0AC48802101F0AAF996
:103B140090200221C0050122FCF7BEFB9020022167
:103B2400C0050022FCF7B8FBA448022101F000FA0A
:103B34000028F9D0A148A82101F094F9902002218D
:103B4400C0050122FCF7A8FB90200221C005002239
:103B5400FCF7A2FB9948022101F0EAF90028F9D008
:103B640096483F2101F07EF990200221C0050122F0
:103B7400FCF792FB90200221C0050022FCF78CFB8D
:103B84008E48022101F0D4F90028F9D08B48D921BC
:103B940001F068F990200221C0050122FCF77CFBAA
:103BA40090200221C0050022FCF776FB8348022105
:103BB40001F0BEF90028F9D080481F2101F052F924
:103BC40090200221C0050122FCF766FB902002210F
:103BD400C0050022FCF760FB7848022101F0A8F937
:103BE4000028F9D07548D32101F03CF99020022136
:103BF400C0050122FCF750FB90200221C0050022E1
:103C0400FCF74AFB6D48022101F092F90028F9D033
:103C14006A48002101F026F990200221C005012202
:103C2400FCF73AFB90200221C0050022FCF734FB8C
:103C34006248022101F07CF90028F9D05F48402154
:103C440001F010F990200221C0050122FCF724FBA9
:103C540090200221C0050022FCF71EFB57480221D8
:103C640001F066F90028F9D054488D2101F0FAF8E2
:103C740090200221C0050122FCF70EFB90200221B6
:103C8400C0050022FCF708FB4C48022101F050F962
:103C94000028F9D04948142101F0E4F890200221C9
:103CA400C0050122FCF7F8FA90200221C005002289
:103CB400FCF7F2FA4148022101F03AF90028F9D060
:103CC4003E48202101F0CEF890200221C0050122B7
:103CD400FCF7E2FA90200221C0050022FCF7DCFA8E
:103CE4003648022101F024F90028F9D03348002194
:103CF40001F0B8F890200221C0050122FCF7CCFAAB
:103D040090200221C0050022FCF7C6FA2B480221AC
:103D140001F00EF90028F9D02848A12101F0A2F8F9
:103D240090200221C0050122FCF7B6FA902002215E
:103D3400C0050022FCF7B0FA2048022101F0F8F88F
:103D44000028F9D01D48C82101F08CF890200221E8
:103D5400C0050122FCF7A0FA90200221C005002230
:103D6400FCF79AFA1548022101F0E2F80028F9D08C
:103D74001248DA2101F076F890200221C0050122D0
:103D8400FCF78AFA90200221C0050022FCF784FA8D
:103D94000A48022101F0CCF80028F9D00748122182
:103DA40001F060F890200221C0050122FCF774FAAA
:103DB4009020022104E0C04600C0FFFF0030014013
:103DC400C0050022FCF768FA8B48022101F0B0F824
:103DD4000028F9D08848812101F044F8902002217C
:103DE400C0050122FCF758FA90200221C0050022E8
:103DF400FCF752FA8048022101F09AF80028F9D021
:103E04007D48FD2101F02EF890200221C0050122F9
:103E1400FCF742FA90200221C0050022FCF73CFA8C
:103E24007548022101F084F80028F9D07248DB219A
:103E340001F018F890200221C0050122FCF72CFAA9
:103E440090200221C0050022FCF726FA6A480221CC
:103E540001F06EF80028F9D06748102101F002F84B
:103E640090200221C0050122FCF716FA90200221BD
:103E7400C0050022FCF710FA5F48022101F058F84F
:103E84000028F9D05C48AF2100F0ECFF902002211B
:103E9400C0050122FCF700FA90200221C00500228F
:103EA400FCF7FAF95448022101F042F80028F9D04D
:103EB4005148A62100F0D6FF90200221C00501221E
:103EC400FCF7EAF990200221C0050022FCF7E4F98E
:103ED4004948022101F02CF80028F9D04648212154
:103EE40000F0C0FF90200221C0050122FCF7D4F9A4
:103EF40090200221C0050022FCF7CEF93E480221A1
:103F040001F016F80028F9D03B48002100F0AAFF80
:103F140090200221C0050122FCF7BEF99020022165
:103F2400C0050022FCF7B8F93348022101F000F87B
:103F34000028F9D030487F2100F094FF902002211E
:103F4400C0050122FCF7A8F990200221C005002237
:103F5400FCF7A2F92848022100F0EAFF0028F9D072
:103F64002548222100F07EFF90200221C005012275
:103F7400FCF792F990200221C0050022FCF78CF98D
:103F84001D48022100F0D4FF0028F9D01A4800216E
:103F940000F068FF90200221C0050122FCF77CF9A3
:103FA40090200221C0050022FCF776F91248022174
:103FB40000F0BEFF0028F9D00F48072100F052FF9F
:103FC40090200221C0050122FCF766F99020082107
:103FD400C0050122FCF760F980232381403B638103
:103FE4000023FF20A3810333A3736133E37323749A
:103FF40008B004BC9046F0BD0030014008B500F0A4
:1040040061FA00F057F808BD7047C0467047C046D3
:1040140082B0019B01330193FBE7C04682B0019B50
:1040240001330193FBE7C0467047C0467047C04662
:10403400002303607047C046002303607047C046F6
:10404400018042807047C04603881AB2002A03DD0B
:10405400013B0380FF2070470020FCE70388022215
:10406400815E1AB2914201DD013303807047C0467C
:1040740003880222815E1AB2914201DD013303807A
:104084007047C04600B5044B83B0186801AB08C044
:1040940001F0FEF803B000BD8808002038B5044CD8
:1040A40025682B1C60332360FFF7ECFF256038BDC7
:1040B400880800200023F0B556464D4644465F4626
:1040C4009846324AF0B493605360D3601833536116
:1040D400163B136143469361D361131CB3B024337D
:1040E400136202AB1360FFF7D9FFFFF7CBFF274B37
:1040F40000201C68261C08CE256E9C46AC459B41BE
:104104005B4299464A46224B64349B461A70634686
:10411400424601935D1B5B465A600132002392467E
:1041240003E0043301305C2B13D0F158E2588A1AAF
:104134009542F6D152464746824017434A46B8460E
:10414400002A1FD08C45ECD98C46043301305C2BFB
:10415400EBD15B4642469A606346019A9B1A4A46F3
:10416400002A02D06246019B9B1A5A46074FD3602D
:10417400084B0C371F6033B03CBC90469946A246AE
:10418400AB46F0BD8C45CCD28C46DEE788080020D7
:104194000809002098090020014B18687047C046A0
:1041A40098090020042238B5154D2C6863682061F5
:1041B4001A43626009221340012B0BD0114B59683A
:1041C400002914D00A6829605A606069002200F04E
:1041D4001DF838BD002323600B4B1A69002A0BD04D
:1041E4005A695C61074B146059680029EAD1296057
:1041F400FFF714FF2968E8E75C611C61DEE7C0464D
:1042040098090020880800200809002010B588B00B
:104214000191029201F03CF8002801D008B010BDD1
:10422400029B002B4AD0019B181C1830586101F0E6
:104234002FF8002806D02B4B1B68DA6818699047C2
:10424400FFF7B0FF00230793274B1A78002A3AD0D0
:10425400DA680198141C844607A97434891A183042
:104264000432644401F0DCFE019B01205B6903938A
:10427400079307ABE41A1C4B9A68039B002A09D0E6
:10428400104203D0196809191960079B04335208B6
:104294000793F5D1019B144A5B69526805938033F7
:1042A40007930120002A09D0104203D01968091984
:1042B4001960079B043352080793F5D1019B012130
:1042C400586900F0F1FFDA68019B9C4699680C1F5D
:1042D400A41A644404910432201C07A901F0A0FE2E
:1042E400C2E7C046980900200809002010B50E4C0A
:1042F4002069002806D00368236100F0EFF82069E4
:104304000028F8D1094B596800290CD0084C2268C0
:1043140010609868026008689A60586050690022CA
:104324002160FFF773FF10BD0809002088080020F2
:1043340098090020036810B5041C002B04D0FFF773
:10434400D5FF2368002BFAD10123236010BDC0469A
:1043540070B5051C002926D04B1C18D10C1C002656
:104364002B881AB2002A0EDC002C1AD0631C04D04D
:1043740000F0A8FF801BA04213D2FFF7B7FF2B88E1
:104384001AB2002AF0DD013B2B80FF200AE0081C52
:1043940000F09EFF041E00D1013400F093FF061CC0
:1043A400DEE7002070BD00240026D9E738B50028D8
:1043B4000ED0431C0DD000F08BFF051C00F082FFD3
:1043C400041CFFF793FF00F07DFF001B8542F8D823
:1043D40038BDFFF78BFFFFF789FFFAE738B50028F0
:1043E40012D0431C11D0FA21890000F0CFFD00F057
:1043F4006FFF051C00F066FF041CFFF777FF00F059
:1044040061FF001B8542F8D838BDFFF76FFFFFF747
:104414006DFFFAE770B5041C0D1C1E1C57291AD930
:10442400002819D0002343600022049B1149236112
:104434000B68A560E6601A600F4A5068002813D024
:104444009068936003600C605869211CFF22FFF799
:10445400DDFE201C70BD5825281C00F035F8041E14
:1044640005D001234360DFE793605360EBE700204E
:10447400F0E7C046980900208808002038B5104BA2
:104484001B68984218D008234268041C13434360F5
:10449400520705D40425FFF729FF63681D42FAD0AB
:1044A4000822191C91436160DB0701D4206938BDDF
:1044B400201C00F013F8F9E701204042F7E7C0465A
:1044C400980900207047C04608B501F0F7FA08BD06
:1044D40008B5111C01F02CFE08BDC04608B501F05A
:1044E400F7FA08BD7047C046324B30B51C1C012199
:1044F40030349A88114204D01033A342F9D30020F7
:1045040030BD0278722A17D0772A33D0612AF6D1C7
:104514000C228024102502219A80A4000130027804
:10452400002A1DD0622A21D0782A1BD02B2AF5D14B
:104534009A880A439A80F1E78122042410215200C8
:104544009A8001300278002A0AD02B2A2ED0622ABF
:10455400F7D19A8801300A439A800278002AF4D16C
:10456400181CCDE79A8822439A80D7E79A882A4371
:104574009A80D3E78024102502210F4AA4009A8050
:1045840001300278002AEBD0622A0BD0782A05D0B9
:104594002B2AF5D19A880A439A80F1E79A88224314
:1045A4009A80EDE79A882A439A80E9E79A88224319
:1045B4009A80C6E720090020040400000020704708
:1045C40000207047012040427047C04600207047D9
:1045D40008B5081CFFF788FF002008BD10B50028A7
:1045E4000AD08388DB0707D50368041C9B69002B6A
:1045F40000D098470023A38010BDC04670B5074C77
:104604000126251C3035A3881E4203D11034AC4248
:10461400F9D370BD201CFFF7E1FFF7E72009002064
:1046240038B5002814D00324838800252340032BA5
:1046340001D0281C38BD0368DB69002BF9D0041CA9
:1046440098470028F5D0E368051C1B18E360F0E7E1
:104654000025EEE738B5002814D00524838800250A
:104664002340052B01D0281C38BD03681B6A002B8E
:10467400F9D0041C98470028F5D0E368051C1B18E2
:10468400E360F0E70025EEE7031E05D082880020F2
:10469400D20700D5D86870470020FCE738B5002859
:1046A4000ED08388DB070BD503685B6A002B07D029
:1046B4000D1C041C9847002802D0E560FF2000E090
:1046C400002038BD08B5031E0AD082880020D20716
:1046D40005D51A68926A002A01D0181C904708BDB3
:1046E4000020FCE708B5031E0BD08288FF20D20708
:1046F40000D408BD1A68D26A002A04D0181C904756
:10470400F7E7FF20F5E70020F3E7C04600207047F5
:104714000020704708B503689B6B002B01D09847B5
:1047240008BD0020FCE7C046FF20704710B5141CEC
:10473400C3688268D018221C01F072FC201C10BDD2
:10474400031C10B5141C081C9968DB68C91801F017
:1047540067FC201C10BDC04610B5041C081CFFF7E4
:10476400C3FE002808D0054B828803600023C36081
:10477400412313438460838010BDC0461470000835
:1047840008B50C4B98420AD080200121C003FBF7E6
:10479400DBFF80200021C003FBF7D6FF08BD80208B
:1047A40001218003FBF7D0FF802000218003FBF769
:1047B400CBFFF3E70054004010B501240368A34382
:1047C40003600268124B13408A68120213434A685A
:1047D400134303600A680F4B1340036103688A693B
:1047E4001C43002304608360C3600B69134380226D
:1047F400836083681202134383600368CA681343A7
:1048040003604268044B13404A691343436010BD7C
:10481400FFE0CF00FFFFFFF0FF7FFF0780220023B0
:104824001202036043608360C36003614261836179
:104834007047C046002904D10122036893430360F2
:1048440070470123026813430360F9E7002904D188
:104854000268054B1340036070478022036892018D
:1048640013430360F8E7C046FFDFFFFF0368002A35
:1048740002D18B430360704719430160FBE7C046D4
:10488400002905D180220368920213430360704714
:104894000268024B13400360F9E7C046FFFFFDFFC7
:1048A400002904D10268054B13400360704780223D
:1048B4000368D20213430360F8E7C046FFFFFBFF1F
:1048C400002904D1C268054B1340C360704780229D
:1048D400C36812021343C360F8E7C046FF7FFFFFBB
:1048E40010B5074B0C1CC16812020B40FE2121407D
:1048F400E024E400224011431943C16010BDC046C6
:1049040001F8FFFF002904D10268054B134003603E
:10491400704780220368120313430360F8E7C0461C
:10492400FFFFF7FF002904D10268054B1340036021
:10493400704780220368520213430360F8E7C046BD
:10494400FFFFFEFF436889059B0A9B02890D1943FB
:1049540041607047002904D14268054B134043600D
:10496400704780224368120113434360F8E7C0464E
:10497400FFF7FFFF002904D14268054B1340436051
:10498400704780224368920413434360F8E7C046AB
:10499400FFFFFFFD002904D14268054B134043602B
:1049A400704780224368520413434360F8E7C046CB
:1049B400FFFFFFFE4268034B0904134019434160A3
:1049C4007047C046FFFF00FF002905D080224368DE
:1049D400D2001343436070474268024B1340436064
:1049E400F9E7C046FFFBFFFF002904D14268054BED
:1049F400134043607047802243689201134343602D
:104A0400F8E7C046FFDFFFFF002904D14268054BE9
:104A140013404360704780224368D20113434360CC
:104A2400F8E7C046FFBFFFFF002904D14268054BE9
:104A3400134043607047802243685201134343602C
:104A4400F8E7C046FFEFFFFF002905D18022436845
:104A540012021343436070474268024B13404360A1
:104A6400F9E7C046FF7FFFFFFE2380691B0418405F
:104A7400000C70478069C003C00F80027047C046B5
:104A840030B54468054D89052C40039D890D2C43A0
:104A940023430B4312041343436030BD009800FCCE
:104AA400002904D10268054B13400360704780223B
:104AB4000368D20313430360F8E7C046FFFFBFFF58
:104AC400002904D14269054B134043617047802299
:104AD4004369120213434361F8E7C046FF7FFFFFB7
:104AE4004369002903D15B005B084361704780225E
:104AF400120613434361F9E7002904D14269054BC7
:104B04001340436170478022436952011343436158
:104B1400F8E7C046FFEFFFFF436909051B0B1B03C2
:104B2400090D1943416170474269044B090413405C
:104B3400034A1140194341617047C046FFFF00F02A
:104B44000000FF0F002904D10268054B13400360E5
:104B5400704780220368120413430360F8E7C046D9
:104B6400FFFF7FFF002904D10268054B1340036057
:104B7400704780220368D20413430360F8E7C046F9
:104B8400FFFFFFFB006AC0B27047C046002382B03B
:104B940001930190019BC9180191019B186802B00F
:104BA4007047C04681627047406AC0B27047C046D1
:104BB4000368002A02D18B430360704719430160E4
:104BC400FBE7C04680690840411E8841C0B2704777
:104BD400C1617047FC239B0119420AD080220368FB
:104BE4001340826900200A4202D0581E8341D8B281
:104BF4007047C0230B4203D0402203681340F0E700
:104C040003680B40EDE7C046C161704708B50E4B21
:104C140098420ED00D4B984200D008BD802001214F
:104C2400C001FBF791FD80200021C001FBF78CFD42
:104C3400F3E7802001214001FBF77AFD8020002169
:104C44004001FBF775FDE8E7003001400038004003
:104C54000023E02203804380D200C3800381438188
:104C64008381C3810733828003827047C12310B5D7
:104C740004889B01CA891C400B881343CA881343C8
:104C84000A8913434A8913438A89134323430380BC
:104C94008288094B13408A881343042283800B8A39
:104CA4000382038893434A8813430380828B034B14
:104CB4001340838310BDC046FFF0FFFFFFF7FFFFE3
:104CC40000230222038043808380C3808260838127
:104CD4007047C046F0B5474680B4274B828B88B0F6
:104CE4001340022283830284838B051C9EB28B684B
:104CF4000C1C022B37D08B8801A859425941531AF6
:104D04009846FBF735FC8023E78801989B009F4277
:104D14002BD04346590100F039F983001818A168D3
:104D2400400000F033F905300A2180B200F02EF97A
:104D340001230340C01A400880B2811E0222FD29CB
:104D440015D91743802223882F8433431201134338
:104D540062881343A2881343A2891343AB8308B028
:104D640004BC9046F0BDCF88EBE7000AD5E7021CEF
:104D74001B021A43E5E7C04640F0FFFF002904D1B7
:104D840040220388934303807047402302881343DF
:104D94000380F9E7002904D1102283889343838098
:104DA40070471023828813438380F9E7002904D1D4
:104DB400828B054B1340838370478022838BD20000
:104DC40013438383F8E7C046FFFBFFFF8288024B4F
:104DD4001340194381807047FFF0FFFF8288034B23
:104DE400134083808388194381807047FFEFFFFF5E
:104DF4008023DB01994204D00288044B13400380D2
:104E04007047038819430180FAE7C046FFBFFFFFDC
:104E1400064B994205D08022038852001343038035
:104E240070470288024B13400380F9E7FFFE00003D
:104E3400FFFEFFFF002904D104228388934383806B
:104E440070470423828813438380F9E7002904D13F
:104E540008228388934383807047082382881343FE
:104E64008380F9E70173704781817047007BC0B28A
:104E74007047C046808980B27047C0460288034BA1
:104E8400134003800388194301807047FFF7FFFF35
:104E9400002904D10288054B134003807047802207
:104EA4000388920113430380F8E7C046FFDFFFFF46
:104EB400802203885201134303807047012902D0E2
:104EC400008B80B27047808A80B2FBE7008A80B290
:104ED4007047C0468388002A02D18B438380704781
:104EE40019438180FBE7C0468288034B13408380CB
:104EF4008388194381807047FF9FFFFF01230909BD
:104F04008B4099B28388002A02D18B4383807047F7
:104F140019438180FBE7C046C02300895B01184028
:104F24007047C046C0230089DB0018407047C04664
:104F340000890840411E8841C0B27047C94389B204
:104F44000181704730B50124838805899AB20F2303
:104F5400201C0B409840031C00202B4206D0231C2D
:104F640009098B4013405A1E9341D8B230BDC04644
:104F740002681378002B02D0531C03601378181CAA
:104F84007047C0460368013B036070470022430832
:104F94008B4274D303098B425FD3030A8B4244D3FD
:104FA400030B8B4228D3030C8B420DD3FF2209023F
:104FB40012BA030C8B4202D31212090265D0030BFE
:104FC4008B4219D300E0090AC30B8B4201D3CB03F4
:104FD400C01A5241830B8B4201D38B03C01A524136
:104FE400430B8B4201D34B03C01A5241030B8B4238
:104FF40001D30B03C01A5241C30A8B4201D3CB0223
:10500400C01A5241830A8B4201D38B02C01A524107
:10501400430A8B4201D34B02C01A5241030A8B420A
:1050240001D30B02C01A5241CDD2C3098B4201D322
:10503400CB01C01A524183098B4201D38B01C01AA0
:10504400524143098B4201D34B01C01A5241030917
:105054008B4201D30B01C01A5241C3088B4201D3C6
:10506400CB00C01A524183088B4201D38B00C01A73
:10507400524143088B4201D34B00C01A5241411A9A
:1050840000D20146524110467047FFE701B50020A7
:1050940000F0FCF802BDC0460029F7D003B5FFF7C5
:1050A40075FF0EBC4243891A1847C04603460B439A
:1050B4007FD4002243088B4274D303098B425FD30D
:1050C400030A8B4244D3030B8B4228D3030C8B4239
:1050D4000DD3FF22090212BA030C8B4202D312121F
:1050E400090265D0030B8B4219D300E0090AC30BF4
:1050F4008B4201D3CB03C01A5241830B8B4201D3A1
:105104008B03C01A5241430B8B4201D34B03C01A89
:105114005241030B8B4201D30B03C01A5241C30A01
:105124008B4201D3CB02C01A5241830A8B4201D372
:105134008B02C01A5241430A8B4201D34B02C01A5C
:105144005241030A8B4201D30B02C01A5241CDD201
:10515400C3098B4201D3CB01C01A524183098B424C
:1051640001D38B01C01A524143098B4201D34B0135
:10517400C01A524103098B4201D30B01C01A524198
:10518400C3088B4201D3CB00C01A524183088B421F
:1051940001D38B00C01A524143088B4201D34B0008
:1051A400C01A5241411A00D201465241104670477A
:1051B4005DE0CA0F00D04942031000D3404253407F
:1051C40000229C4603098B422DD3030A8B4212D33F
:1051D400FC22890112BA030A8B420CD38901921171
:1051E4008B4208D3890192118B4204D389013AD0AE
:1051F400921100E08909C3098B4201D3CB01C01A83
:10520400524183098B4201D38B01C01A5241430995
:105214008B4201D34B01C01A524103098B4201D383
:105224000B01C01A5241C3088B4201D3CB00C01AF0
:10523400524183088B4201D38B00C01A5241D9D208
:1052440043088B4201D34B00C01A5241411A00D289
:105254000146634652415B10104601D34042002B85
:1052640000D54942704763465B1000D3404201B504
:10527400002000F00BF802BD0029F8D003B5FFF7B9
:1052840015FF0EBC4243891A1847C0467047C046F2
:10529400F0C041464A4653465C466D4676467EC05B
:1052A4002838F0C80020704710307CC890469946D2
:1052B400A246AB46B54608C82838F0C8081C00D139
:1052C40001201847014B18687047C0469009002018
:1052D400704770477047704770470000FA21F0B577
:1052E400C44B91B018688900FFF750FEC24A0138D8
:1052F4005060C020C14900060B6A80271B021B0AAC
:1053040003430B6200238020936007331360800201
:105314000121FBF7DDF980200121C002FBF7D8F958
:10532400802001210003FBF7D3F980200121C00371
:10533400FBF7CEF900F0C3F900F094F9FCF7AAF8F2
:10534400FCF75EFAAE48FDF70BF90125022608AC1E
:105354000590201CFAF76AFF3F01211CA94825711A
:1053640066710897FAF7FEFE8023211C5B01A548AD
:10537400257108936671FAF7F5FE8023211C9B01C1
:10538400A048257108936671FAF7ECFE8023211C6E
:10539400DB019C48257108936671FAF7E3FE8023CC
:1053A400211C1B029748089325716671FAF7DAFEEF
:1053B400954C2068FCF7EEFB07902068FCF7EEFBA9
:1053C400049000F0D7FA00F077FA00F0A3FA291C51
:1053D4008E48FBF73DFB8020291CC005FBF738FBFA
:1053E400291C8A48FBF75AFB8020291CC005FBF7BF
:1053F40055FB2A1C8348391CFAF74EFF80212A1CCE
:1054040080484901FAF748FF80212A1C7D48890118
:10541400FAF742FF80212A1C7A48C901FAF73CFFB7
:1054240080212A1C77480902FAF736FF049B049A64
:10543400DB0F9B182B4100259BB20693FA20013504
:10544400800000F043F901242A1C802122406D4889
:105454000901FAF721FF80216A08224069484901BD
:10546400FAF71AFF03222A40531E9A418021D2B22E
:1054740064488901FAF710FF8021AA082240614894
:10548400C901FAF709FF05222A40531E9A418021D7
:10549400D2B25C480902FAF7FFFE5C485521FBF7DB
:1054A40031FC5A485521FBF72FFC58487821FBF76B
:1054B4002DFC80205A21C005FBF728FC80206421A4
:1054C400C005FBF721FC00244A214B2721407940E9
:1054D4004E48FBF717FC211C4123394019434B4824
:1054E400FBF712FC4C2000212040FFF7DFFD011CDC
:1054F4003720FFF7C1FE4548FBF708FC80203C211C
:10550400C005FBF701FC462180202140C005FBF7C4
:10551400FDFB3E487821FBF7F5FB3C486E21FBF789
:10552400F3FB3A486421FBF7F1FB80206921C005B5
:10553400FBF7EAFB80207321C005FBF7E7FB324E43
:1055440000213068FCF7E2FB6B4618229A5E059B4B
:10555400002100930123019330682D4BFCF7E6FDF5
:105564002C4800F0B3F830680021FCF7CFFB5E2133
:10557400214079402548FBF7C5FB5F2141232140A9
:1055840019432248FBF7C0FB602000212040FFF7AD
:105594008DFD011C3720FFF76FFE1C48FBF7B6FB9F
:1055A40080203C21C005FBF7ADFB42218020214037
:1055B400C005FBF7A9FB18491848FFF7CDF8011CF3
:1055C4000AA8FDF73FF8079B0AA90093049B01343E
:1055D40001930023029303931A1C3068FDF7A2F889
:1055E4000AA8FDF769F80E4800F070F87F2C00D087
:1055F4006AE723E73400002010E000E000ED00E05B
:10560400D27400080004004894090020002C0140D2
:105614004468000888130000DF7400085070000814
:10562400102700007047FEE770477047024A13686E
:10563400013313607047C04690090020802008B5EC
:10564400C0050121FBF700FE00F0B6F808BD00001C
:1056540008B503480121FBF7F7FD00F0B9F808BDD0
:10566400000400408022024B12021A607047C046B8
:1056740000E100E0012008B5011CFBF741F808BD7A
:10568400FA2330B5802485B001A99B0000254B6026
:105694003023E405201C0B800D814D80FBF736F987
:1056A400201C291CFBF7AAF9201C0121FBF7CCFDC7
:1056B4000121201C0A1CFBF7A5FD05B030BD08B56F
:1056C400FFF7D8FFFFF7DCFF08BD0000FA2330B571
:1056D4001B4D85B001A928809B00802000244B60CD
:1056E4003023C0050B800C814C80FBF70FF9802020
:1056F400211CC005FBF782F980200121C005FBF7BE
:10570400A3FD012180200A1CC005FBF77BFD80203E
:10571400211CC005FBF79CF98020211CC005FBF768
:1057240057F980200121C005FBF792F9298889B235
:105734000029FBD18020C005FBF78AF905B030BDF4
:10574400500900207FB51B4E302330808020012477
:10575400002501A9C0054B600C800D814D80FBF72D
:10576400D5F88020291CC005FBF748F98020211CAE
:10577400C005FBF769FD8020221CC005211CFBF736
:1057840041FD8020291CC005FBF762F98020291CFB
:10579400C005FBF71DF98020211CC005FBF758F953
:1057A400318889B20029FBD18020C005FBF750F96C
:1057B4007FBDC04650090020044A1388002B03D043
:1057C4001388013B9BB213807047C04650090020E8
:1057D400034B1A68013202D01A6801321A6070470A
:1057E4005409002013B501200F24244B1A680243E6
:1057F4001A605968224A0A405A601968214A0A40C4
:105804001A601968204A0A401A6059681F4A1140F0
:105814005960D96AA143D9621C6B1D49214019639F
:10582400596B814359630021996000910191194991
:1058340010300860596859605968596059680A40BD
:10584400A0215A605A6889030A4380215A601A6861
:1058540049040A431A601968084A8901FBD50320E0
:1058640051688143516051680138014351600C22F1
:1058740059680A40082AFAD113BDC04600100240F4
:105884000CB8FFF8FFFFF6FEFFFFFBFFFFFFC0FFB2
:10589400ACFEFFFF0020024000B589B001A8FAF772
:1058A40067FE039A019BD31A584243410220C01A4F
:1058B400504309B000BD00007FB5FFF7EDFF051CA4
:1058C4000120011CFAF71CFF8020632601AC012192
:1058D4000001FAF709FF201CFBF766F8281C0B49A6
:1058E4006660FFF753FB451EADB2211C08482580B6
:1058F400FBF70CF8201CFBF757F88020211CC0058F
:1059040066602580FBF702F87FBDC04610270000C3
:10591400002C0140F0B587B001AC201CFBF7C2F9A4
:10592400002570230127124E211C301C2380A581E1
:10593400A5606780FBF7C0F8301C211CFBF7FCF85E
:10594400211C301CFBF738F9201CFBF7ABF9A581AF
:10595400A56080256023ED05281C211C2380678019
:10596400FBF7EAF8281C211CFBF726F907B0F0BD69
:10597400002C0140F7B56846FAF758FC8020012155
:105984008002FAF7A5FE80200121C002FAF7A0FEEA
:105994006B4600229025E02702249A7103260122F7
:1059A400ED05FF00281C69465E711C71DA710097D1
:1059B400FAF7D8FB391C281CFAF76AFC281C221CAD
:1059C4000821FAF771FC281C221C0A21FAF76CFC46
:1059D400281C221C0921FAF767FC6B465E7181239F
:1059E400DB00009300226B469A7101220A4D69463E
:1059F400281CDA711C71FAF7B5FB281C0749FAF761
:105A040047FC281C221C0A21FAF74EFC281C311CD6
:105A1400221CFAF749FCF7BD000400480884000082
:105A24000D488546002103E00C4B5B58435004317C
:105A34000B480C4B42189A42F6D30B4A02E000235F
:105A440013600432094B9A42F9D3FFF7CBFE00F0FE
:105A540011F8FFF743FCFEE7001800202475000846
:105A6400000000207408002074080020A009002011
:105A7400FEE7000070B50D4E0D4D0024AD1BAD10BA
:105A840005D0A300F35801349847A542F9D101F099
:105A94003BFD084E084D0024AD1BAD1005D0A300FE
:105AA400F35801349847A542F9D170BD00000000B5
:105AB40000000000000000000000000008B5034BD7
:105AC400011C186800F00EF808BDC04660040020F0
